:100000000C944E000C949D1D0C949D1D0C949D1DF4
:100010000C949D1D0C949D1D0C949D1D0C949D1D78
:100020000C949D1D0C949D1D0C949D1D0C949D1D68
:100030000C949D1D0C949D1D0C949D1D0C949D1D58
:100040000C949D1D0C949D1D0C949D1D0C949D1D48
:100050000C949D1D0C949D1D0C949D1D0C949D1D38
:100060000C949D1D0C949D1D0C949D1D0C949D1D28
:100070000C949D1D0C949D1D0C949D1D0C949D1D18
:100080000C949D1D0C949D1D0C949D1D0C949D1D08
:100090006000604580604560A8003B488091011089
:1000A0008F7C8060806898ED94BF8093011011244C
:1000B0001FBECFEFCDBFDFE7DEBFE0E9F0E040E0FD
:1000C00017C0B591A59135912591059107FD0CC0FB
:1000D00095918591EF01F92FE82F05900D92A217C8
:1000E000B307D9F7FE0104C01D92A217B307E1F7C9
:1000F000EC39F40731F70E94191A0C94FD1CF8949E
:02010000FFCF2F
:10010200009BAD36C15A6CF71982B42FD84375EEF5
:1001120032A99F04F3685EC52BB0861DEA7147DCE5
:1001220064FFC952A53E08937DE6D04BBC27118AD5
:1001320056CDFB60970C3AA14FD4E2798E1523B8C5
:10014200C85365FE0992A43FD14A7CE7108BBD26B5
:10015200FA6157CC3BA0960DE3784ED522B98F14A5
:10016200AC37019A6DF6C05BB52E188374EFD94295
:100172009E0533A85FC4F269871C2AB146DDEB7085
:100182000B90A63DCA5167FC1289BF24D3487EE575
:1001920039A2940FF86355CE20BB8D16E17A4CD765
:1001A2006FF4C259AE35039876EDDB40B72C1A8155
:1001B2005DC6F06B9C0731AA44DFE972851E28B345
:1001C200C3586EF50299AF34DA4177EC1B80B62D35
:1001D200F16A5CC730AB9D06E87345DE29B2841F25
:1001E200A73C0A9166FDCB50BE2513887FE4D24915
:1001F200950E38A354CFF9628C1721BA4DD6E07B05
:100202005B2530327825303478253032782530320B
:0F021200782530327825303478253032785D0009
:10022200A5E2B0E0E7E1F1E00C94BA1B8E8F9F8F5C
:100232006E8B7F8B298FFB010190F081E02DE98786
:10024200FA87FB0102811381248135812A8B3B8B42
:100252008085918588A399A326803780FA018080C2
:100262009180A280B38020E030E0A901C501B401F1
:100272000E94881D87FF06C0B7FAB094B7F8B09401
:100282008DE204C0598552FF54C38BE2F101808391
:100292002A893B89215031092B833C8341E050E07C
:1002A200488B598B06C08A899B898B839C83188AC9
:1002B200198AD501C401BF770097E0E8AE07EFE7DE
:1002C200BE0799F4F98D2F2FFF0F330B21543109FB
:1002D20088899989820D931D2A31310518F463E8C2
:1002E20070E619C067E870E616C00197A048BF47DC
:1002F200A8F0498D242F440F330B215431098889EA
:100302009989820D931D2A31310518F46BE870E644
:1003120002C06FE870E60E943B1DFAC220E030E0A6
:10032200A901C501B4010E94881DC12CD12C20E86D
:10033200E22E2FE3F22E19821A82882309F48CC04E
:100342008D829E82AF82B88620E030E040E251E4A6
:10035200C701B6010E94961D2B013C01D501C401C3
:1003620084199509A609B709B7FF07C0B095A095EA
:10037200909581959F4FAF4FBF4F0297A105B10551
:1003820044F489819A81019689839A837301620177
:10039200DBCFA5019401C301B2010E94881D87FD34
:1003A200F0CF8D819E81AF81B8858C199D09AE09F0
:1003B200BF090196A11DB11D0397A105B10508F45E
:1003C20049C01D821E82A5019401C701B6010E9487
:1003D2008D1D18160CF040C0E981FA81E43DFE4FF4
:1003E200E4F44D815E81452BC1F420E030E040E829
:1003F2005AE5C501B4010E94961D4B015C0120E043
:1004020030E040E85AE5C701B6010E94961D6B0133
:100412007C0181E090E08D839E8320E030E040E229
:1004220051E4C701B6010E94921D6B017C01E98172
:10043200FA813197E983FA83D501C4018C199D09A8
:10044200AE09BF090196A11DB11D0397A105B10512
:1004520008F0B9CF46015701F98D8F2FFF0F990B85
:100462000E94431D888F17FD03C00D831E8304C0A5
:1004720026E030E02D833E83388D373639F4012B68
:1004820041F441E050E04D835E8303C0288D2F8705
:1004920014C089819A818C3F9F4F0CF44FC289818D
:1004A2009A81ED81FE818E179F070CF047C2298148
:1004B2003A8137FF46C236E63F874D815E814F5F04
:1004C2005F4F4D835E835F855636B9F489819A8189
:1004D20097FF08C0C12CD12C90E8E92E9FE3F92E9A
:1004E20019821A82988D973641F0ED81FE81298119
:1004F2003A81E20FF31FED83FE831C2DDCA2EAA2F8
:100502000F2D8B869C86AD86BE861C8A1D8A8C89A1
:100512009D89ED81FE818E179F07DCF5212F3CA17D
:100522004AA1502F6B857C858D859E850E94921DE8
:100532000E9449112B013C010E94751D6A8FA30183
:100542009201612F7CA18AA1902F0E94961D2B857A
:100552003C854D855E850E94521D9B01AC01505821
:100562002B873C874D875E8720E030E040E251E4F4
:10057200612F7CA18AA1902F0E94921D162F7CA32D
:100582008AA3092F4C895D894F5F5F4F4C8B5D8B2E
:10059200BECF20E030E040EA50E4612F7CA18AA186
:1005A200902F0E94961D2B013C019B01AC016B8593
:1005B2007C858D859E850E94881D87FD0DC0A301C7
:1005C20092016B857C858D859E850E94881D811197
:1005D20006C0FA8DF0FD03C0412C512C3201A50159
:1005E2009401C301B2010E94531D4B015C0120E042
:1005F20030E040E251E4C701B6010E94961D6B87CC
:100602007C8B182F092F9B01482F592FC501B4014C
:100612000E948D1D87FD14C029813A812F5F3F4FB3
:1006220029833A833F85363679F44D815E814F5F67
:100632005F4F4D835E835B855CA38C898DA30BC06A
:10064200CB86DC8A1E2D0F2D9F85953639F0EB85E2
:10065200ECA3FC89FDA3E980FA8006C02B852CA3BC
:100662003C893DA3E12CF12C48885988C12CD12C1E
:100672001C8A1D8A1B861C8649855A85407155270E
:100682004AA35BA32B853C854D815E8124173507E8
:1006920034F08C899D89892B09F494C09FC0320162
:1006A200EE89FF898085918505974816590688F756
:1006B2002CA13DA1412F502FC501B4010E94921DD2
:1006C2000E9449116A8F7B8F8C8F9D8F0E94751DAE
:1006D2006A30710514F069E070E08AA19BA1892B50
:1006E20069F46115710551F4988D973639F4F7FE66
:1006F20005C03601EFEF6E1A7E0A38C02C893D899B
:10070200232B99F4F7FE11C03FEF431A530AF1016C
:10071200E60DF71D4EE240838B819C8101978B830E
:100722009C83E1E0F0E0EC8BFD8BF101E40DF51D23
:1007320036016114710431F020E3219331E0631A30
:100742007108F7CFC601840D951D2B813C812C19B0
:100752003D092C014FEF441A540AF101E80FF91F29
:10076200605D6083C90101978B839C832A8D3B8DD9
:100772004C8D5D8D6CA17DA1812F902F0E94961DC5
:10078200A50194010E94521D4B015C01B7FAB0947D
:10079200B7F8B09420E030E040E251E46CA17DA1D2
:1007A200812F902F0E94921D6CA37DA3182F092FD9
:1007B20091E0E91AF108EB85FC853196EB87FC871D
:1007C200630160CFF985F4FF09C0F101E40DF51D65
:1007D2008EE2808392012F5F3F4F2901A101440DD8
:1007E200551D4D835E83FA011082FF85F53609F0AF
:1007F20063C0E8A1F9A1E20DF31D319710822981AE
:100802003A8137FF08C031952195310929833A830E
:1008120001E010E002C000E010E0E8A1F9A1319788
:10082200E20DF31D22E030E08AE0E82EF12CCF0148
:100832008219930949815A81452B91F089819A81C4
:10084200B7010E945B1C805D829369837A83215089
:1008520031094B815C81415051094B835C83E7CF65
:10086200121613065CF3FC013197E20DF31D012B06
:1008720011F42BE201C02DE220830297B101680F2F
:10088200791F598D252F550F330B215431092A31E8
:10089200310510F025E601C025E4FB0120832B8100
:1008A2003C81225031092B833C834816590624F49B
:1008B2008D819E810E943B1D398531FF29C030FD0B
:1008C20027C04B815C811416150614F5C1010E94E4
:1008D200AF1C820D931D9C01221933094889598945
:1008E200241735074CF0FC012081EB81FC81E80FD5
:1008F200F91F20830197EFCF4B815C8160E370E0A9
:1009020088899989820D931D0E94081D1A8A1B8A63
:10091200C1010E94AF1C09851A852A893B89AC0155
:10092200B1018E8D9F8D0E941318A596E2E10C9461
:10093200031C598553FFB7CC80E2A8CCF5E6FF87AC
:08094200DCCD36E63F87D9CD7C
:10094A00A0E2B0E0EBEAF4E00C94BA1B888F998F2E
:10095A00FB012C8B20812F8331813A8F82819381F5
:10096A008A8B9B8B248135812A873B878085918559
:10097A008B8F9C8F66807780FA01C080D180E2805D
:10098A00F38020E030E0A901C701B6010E94881D6A
:10099A0087FF06C0F7FAF094F7F8F0948DE204C0E6
:1009AA005F8152FFDDC28BE2F30180832A853B859A
:1009BA00215031092C873D8741E050E04D835E8309
:1009CA0006C08A859B858C879D871D821E82B701FA
:1009DA00A6017F774115510590E869079FE77907D6
:1009EA00B9F4AC892A2FAA0F330B215431098D810E
:1009FA009E81860D971D2A31310518F463E770E64A
:100A0A0002C067E770E60E943B1D87E790E698C23E
:100A1A00EC892E2FEE0F330B8D819E81860D971D4B
:100A2A004130510560487F4778F0215431092A3115
:100A3A00310518F46BE770E602C06FE770E60E94B2
:100A4A003B1D8FE790E67CC240E3FC014083ED81C9
:100A5A00FE813196E60DF71D4D815E814E5F5F4F37
:100A6A004D835E83C901815491098E8B9F8B4A976E
:100A7A0010F088E701C088E5808320E030E0A90112
:100A8A00C701B6010E94881D1B821C821F8E18A2F4
:100A9A00882309F469C090E89983AFE3AA832F8D6C
:100AAA0038A149815A816F8D78A189819A810E94E2
:100ABA00531D5B018C01A70196010E948D1D18161A
:100ACA000CF447C0EB81FC813196EB83FC83AF8E3B
:100ADA00B8A209831A83E3CF20E030E040E05FE365
:100AEA006F8D78A189819A810E94961D20E030E05D
:100AFA00A9010E94881D811118C020E030E040E859
:100B0A005AE56F8D78A189819A810E94961D6F8F0F
:100B1A0078A389839A8320E030E040E85AE5C70148
:100B2A00B6010E94961D6B017C0120E030E040E096
:100B3A005FE36F8D78A189819A810E94961D6F8FDC
:100B4A0078A389839A832B813C81215031092B8395
:100B5A003C832F8D38A149815A81C701B6010E9471
:100B6A00881D87FDB9CF04C030E839834FE34A8333
:100B7A008A899B8997FF02C088E190E0FC0131963F
:100B8A00E887F9878F8C98A0A980BA801601870117
:100B9A00412C512C9401A501B101C8010E94921D5A
:100BAA000E9449116E877F87888B998B9401A501D2
:100BBA000E94961D9B01AC01B101C8010E94521D01
:100BCA001B018C0120E030E040E85DE3B401C5017F
:100BDA000E94961D4B015C01FFEF4F1A5F0A2A899A
:100BEA003B8937FF09C020E030E0A901B101C80103
:100BFA000E94881D882331F0488559854416550678
:100C0A004CF202C04886598620E030E040E051E4C8
:100C1A00B401C5010E94961D4B015C019B01AC0108
:100C2A00B101C8010E94881D87FD12C0A501940167
:100C3A00B101C8010E94881D81110DC06E857F8592
:100C4A00888999890E94751D61707727672B19F425
:100C5A00812C912C5401A5019401C701B6010E946F
:100C6A00531D6B017C01DC01CB01BF770097A048C3
:100C7A00BF4709F4B6CE2C843D8482E0281A310895
:100C8A00E885F985F195E195F109EC8BFD8B0D81EC
:100C9A001E81412C512C1C861D86188619862B8D87
:100CAA003C8D255031092D8F3E8F0E871F87ED8D84
:100CBA00FE8D0E171F0708F093C02F8D38A14981AA
:100CCA005A81C701B6010E94921D0E9449114B0127
:100CDA005C010E94751DAB016115710541F4E8853F
:100CEA00F985EF2B21F0FFEF4F1A5F0A4FC02C85D1
:100CFA003D85232B99F4E885F985EF2B79F00F5F71
:100D0A001F4FEE85FF85E60DF71D2EE2208331E0A9
:100D1A00231A3108E1E0F0E0EC87FD87F301E00FE8
:100D2A00F11F92012115310529F0A0E3A193215069
:100D3A003109F8CFF801E40DF51DEE87FF87241875
:100D4A0035084A3051051CF4605D7F4F02C0695A6C
:100D5A007F4F2E893F892A31310550F4CB018062B9
:100D6A00815691094A9720F4CB010E94111DBC01BA
:100D7A000E851F850F5F1F4FEE85FF85E60DF71D58
:100D8A00608331E0231A3108412C512C2F8D38A170
:100D9A0049815A81C501B4010E94961D9B01AC018B
:100DAA00C701B6010E94521D6B017C0120E030E0B0
:100DBA0040E85DE36F8D78A189819A810E94961D32
:100DCA006F8F78A389839A83488559854150510941
:100DDA00488759878C899D898417950709F065CFBB
:100DEA002C853D85232B49F5F301E00FF11F4114B2
:100DFA005104E1F04A895B8914161506BCF45F8137
:100E0A0050FD14C08EE28083F8013196E60DF71D7D
:100E1A00C20120E321930197E9F7040D151D0F5F25
:100E2A001F4F40945094240C351C07C08F8184FFB7
:100E3A0004C08EE280830F5F1F4FF301E00FF11FA2
:100E4A00E887F9871082EB8DFC8D3197E60DF71D47
:100E5A0010822B813C8137FF09C0319521953109D8
:100E6A002B833C83EE24E394F12C02C0E12CF12C79
:100E7A0021E030E08AE0C82ED12CCF0186199709EB
:100E8A004B815C81452B79F08B819C81B6010E9454
:100E9A005B1C805D82936B837C832150310941E026
:100EAA00241A3108EACF2130310571F3FC01319758
:100EBA00E60DF71DE114F10411F42BE201C02DE255
:100ECA0020830297B301680F791FEE89FF897A9709
:100EDA0010F020E701C020E5FB012083081719075D
:100EEA0024F4888599850E943B1DFF81F1FF27C064
:100EFA00F0FD25C022E0221A310812141304FCF472
:100F0A00C3010E94AF1C860D971D9C012619370943
:100F1A004D815E81241735073CF0FC012081E20DEA
:100F2A00F31D20830197F1CFA10160E370E08D8169
:100F3A009E81860D971D0E94081D1A861B86C30175
:100F4A000E94AF1C0F811A8D2A853B85AC01B30123
:100F5A00888D998D0E941318A096E2E10C94031CC7
:0A0F6A005F8153FF2ECD80E21FCD02
:100F7400A2E1B0E0E0ECF7E00C94BD1B4C016B0186
:100F840019821A828FEF9FEF8B839C831D821E82AE
:100F94004F83588729873A87A12CB12CD6016D90AD
:100FA4007C90F301EA0DFB1D808181110FC0D601F5
:100FB400ED93FC938081853209F0D9C13F01BFEFE5
:100FC4006B1A7B0AF6016082718219C0853279F34B
:100FD400B401082E000C990B0E94D2164FEFA41AEC
:100FE400B40ADCCF8C32ACF08D32F9F489819A8169
:100FF400816089839A833196D601ED93FC93D6015F
:10100400ED91FC9180818B3269F789819A818460AA
:10101400F0CF803221F489819A818860EACF8332CB
:1010240051F489819A818061E4CF803321F48981EC
:101034009A818260DECFB701C6010E9442198D8376
:101044009E8397FF0BC029813A81B1E02B27298326
:101054003A839195819591098D839E8389819A81A3
:1010640080FF03C08D7F89839A83D601ED91FC9123
:10107400119780818E3249F43196ED93FC93B70138
:10108400C6010E9442198B839C83C6010E94EE1AFA
:10109400582ED601ED91FC918081082E000C990BFD
:1010A4000E94431D893609F443C084F4833609F44D
:1010B40008C134F4853209F42DC18136E1F036C11A
:1010C4008436B1F188360CF4DFC030C1803709F4BE
:1010D4009AC03CF48E3609F4C2C08F3609F461C05C
:1010E40025C1853709F440C0883709F476C08337B1
:1010F40009F01CC1F9C0652D70E0A701CE010B9663
:101104000E940E1B892B09F42CC1D601ED91FC9190
:101114001197CF0101968D939C932081AE01455F79
:101124005F4FBE016F5F7F4FC4010E94A50416C1CB
:10113400652D70E0970141E050E0CE010B960E94CE
:10114400BD0E892B09F40DC1F601808191810196B0
:1011540080839183AE01455F5F4FBE016F5F7F4F18
:10116400C4010E94030EFAC0652D70E0970140E0AF
:1011740050E0CE010B960E94BD0E892B09F4F1C0FC
:10118400D6018D919C91119701968D939C93AE01FC
:10119400455F5F4FBE016F5F7F4FC4010E94D5154D
:1011A400DDC0652D70E0970140E050E0CE010B9664
:1011B4000E94BD0E892B09F4D4C0F601808191816F
:1011C400019680839183AE01455F5F4FBE016F5FDF
:1011D4007F4FC4010E944814C1C0652D70E097017F
:1011E40040E050E0CE010B960E94BD0E892B09F41D
:1011F400B8C0D601ED91FC911197CF0101968D9362
:101204009C93208122C0D701ED91FC911197CF01CD
:1012140002968D939C93008111810B871C871D86F8
:101224001E861F86188A198A1A8AF601808191817E
:101234000196808391838B859C85892B29F420E0FA
:1012440030E042EA50E684C028E7AE01455F5F4FD4
:10125400BE016F5F7F4FC4010E94D80C7FC0A501FF
:10126400400F511F652D70E09701CE010B960E942F
:101274000813892B09F475C0D6018D919C9111979F
:1012840001968D939C9373C0652D70E0A701CE01E8
:101294000B960E940E1B892B09F463C0D601ED91B5
:1012A400FC911197CF0101968D939C932081AE01FF
:1012B400455F5F4FBE016F5F7F4FC4010E94110104
:1012C4004DC0B0E85B124DC0F6018081918101965A
:1012D40080839183D701ED91FC911197CF01029600
:1012E4008D939C93808120C0B0E85B123AC0F601D4
:1012F40080819181019680839183D701ED91FC9146
:101304001197CF0102968D939C934081518120E0E7
:1013140030E01EC0B0E85B1224C0F60120813181A8
:101324002F5F3F4F208331838B870DC085E28B87EE
:10133400D6016D927C9219821A821D821E828FEFD1
:101344009FEF8B839C8321E030E0AE01455F5F4FCC
:10135400BE016F5F7F4FC4010E94EF198A0D9B1D70
:1013640007C0F60180819181019680839183C50134
:081374006296EFE00C94061CE8
:10137C004F925F926F927F928F929F92AF92BF9299
:10138C00CF92DF92EF92FF92CF93DF930E94C71020
:10139C000E94C519E2E0F0E683A894A8A5A8B6A817
:1013AC00B594A794979487942AEF921AA108B10840
:1013BC00C501B40195958795779567959595879512
:1013CC00779567959B01AC010E94801C2B013C0119
:1013DC009B01AC01012E1BE0559547953795279540
:1013EC001A95D1F7102DA1A10A2E000CBB0B0E944F
:1013FC00331D6B017C01F594E794D794C794F59455
:10140C00E794D794C794A78DB0A1A50194010E942D
:10141C00331DDC01CB01880F991FAA1FBB1FC80EFF
:10142C00D91EEA1EFB1EF594E794D794C794F59445
:10143C00E794D794C794A28DB38D0E94331D4B01B2
:10144C005C01B594A79497948794248D822F220FD6
:10145C00990BAA0BBB0B880F991FAA1FBB1F880FD8
:10146C00991FAA1FBB1F880F991FAA1FBB1F880F8C
:10147C00991FAA1FBB1F9C01AD01220F331F441FD4
:10148C00551FC301B201052E5DE0959587957795A3
:10149C0067955A95D1F7502D0E94801CDC01CB0129
:1014AC00689412F8B595A795979587951694D1F7EA
:1014BC00880D991DAA1DBB1D072E72E1B595A79528
:1014CC00979587957A95D1F7702D9C01AD01305881
:1014DC004F4F5F4FA08DB18D0E94F21C4B015C01F0
:1014EC00072E7FE0B594A794979487947A95D1F7BB
:1014FC00702D86859785A089B18940E050E060E128
:10150C0070E0481B590B6A0B7B0B858D968D092E51
:10151C00000CAA0BBB0BDC0199278827C80ED91E1F
:10152C00EA1EFB1E0B2EBCE0F594E794D794C794EF
:10153C00BA95D1F7B02D9A01AB012C193D094E0982
:10154C005F09A5E3BCE00E94F21C611571058105E1
:10155C0020E4920798F0A50194010E94CC1ADA01BC
:10156C00C901880F991FAA1FBB1F80933D609093E0
:10157C003E60A0933F60B093406010C0660F771F31
:10158C00881F991FA50194010E94CC1A20933D60DD
:10159C0030933E6040933F6050934060C2E0D0E691
:1015AC00CBACDCACEDACFEACC701B601689412F868
:1015BC0095958795779567951694D1F74D2C5E2C5C
:1015CC006F2C772467FC7A949B01AC010E94801CE1
:1015DC009B01AC01012E1DE055954795379527953C
:1015EC001A95D1F7102DADA1BEA10E94331D4B0150
:1015FC005C01072E7CE0B594A794979487947A9518
:10160C00D1F7702DA70196015595479537952795DC
:10161C005595479537952795ABA1BCA10E94331DD5
:10162C00DC01CB01072E7DE0B595A79597958795A5
:10163C007A95D1F7702D880E991EAA1EBB1EA30198
:10164C009201C301B2010E94801C9B01AC01C30139
:10165C00B2010E94801C9B01AC01AFA1B0E00E94C2
:10166C00F21CDC01CB01072E71E1B595A79597957E
:10167C0087957A95D1F7702DB501A401480F591FA4
:10168C006A1F7B1F8AA1082E000C990BAA0BBB0B9F
:10169C00880F991FAA1FBB1F880F991FAA1FBB1F5A
:1016AC00880F991FAA1FBB1F880F991FAA1FBB1F4A
:1016BC00880F991FAA1FBB1F880F991FAA1FBB1F3A
:1016CC00880F991FAA1FBB1F840F951FA61FB71F3A
:1016DC00689413F8B595A795979587951694D1F7B7
:1016EC008C0D9D1DAE1DBF1DBC01CD016E5C7F4FD1
:1016FC008F4F9F4F24E630E040E050E00E941B1CCF
:10170C002BAF3CAF4DAF5EAFDF91CF91FF90EF9021
:10171C00DF90CF90BF90AF909F908F907F906F9005
:06172C005F904F9008954C
:101732004F925F926F927F928F929F92AF92BF92DF
:10174200CF92DF92EF92FF92CF93DF930E949C128F
:101752000E94871BC2E0D0E6CFA8D8ACE9ACFAACB5
:10176200AFA50A2E000CBB0BA70196010E94331DE8
:1017720024E630E040E050E00E941B1CC701B601A5
:101782000E94801C689415F89595879577956795C2
:101792001694D1F724E630E040E050E00E941B1C92
:1017A20049015A01AEA50A2E000CBB0BA7019601F6
:1017B2000E94331D24E630E040E050E00E941B1CF2
:1017C200D501C401820F931FA41FB51F9C01AD0157
:1017D200305C4F4F5F4FABA5BCA50E94F21C2B01A2
:1017E2003C01032E3AE075946794579447943A95D6
:1017F200D1F7302D88849984A12CB12C89A59AA582
:10180200A0E0B0E0880F991FAA1FBB1F880F991F85
:10181200AA1FBB1F880F991FAA1FBB1F880F991FE2
:10182200AA1FBB1F881A990AAA0ABB0AADA50A2ECB
:10183200000CBB0BA70196010E94331D24E630E089
:1018420040E050E00E941B1CDA01C901B595A79542
:1018520097958795A5019401281B390B4A0B5B0BC1
:10186200CA01B901A30192010E94801C4B015C01D3
:101872002B013C01032E3EE07594679457944794E4
:101882003A95D1F7302DA9A90A2E000CBB0BA7015E
:1018920096010E94331D24E630E040E050E00E94B1
:1018A2001B1CC8A8D12CE12CF12CCC0CDD1CEE1C8D
:1018B200FF1CCC0CDD1CEE1CFF1CCC0CDD1CEE1C3A
:1018C200FF1CCC0CDD1CEE1CFF1CCC0CDD1CEE1C2A
:1018D200FF1CCC0CDD1CEE1CFF1CCC0CDD1CEE1C1A
:1018E200FF1CC20ED31EE41EF51E689413F8F59475
:1018F200E794D794C7941694D1F7A3019201C30138
:10190200B2010E94801C052E5AE095958795779525
:1019120067955A95D1F7502DA70196010E94801C18
:10192200DC01CB01B595A79597958795880D991DF3
:10193200AA1DBB1D9C01AD01012E1AE055954795CC
:10194200379527951A95D1F7102DA8EEB3E00E948E
:10195200F21CDC01CB01072E7CE0B595A79597958B
:1019620087957A95D1F7702DBC01CD016C507E4FD1
:101972008F4F9F4F28EE33E040E050E00E941B1C47
:10198200209341603093426040934360509344609F
:10199200DF91CF91FF90EF90DF90CF90BF90AF900B
:0E19A2009F908F907F906F905F904F90089570
:1019B000A4E1B0E0EEEDFCE00C94BA1B8F839887B5
:1019C00069837A834B8B5C8B122FDB011296ED912E
:1019D000FC91139714962D913C9115972D833E837E
:1019E000CD90DC90119716962D903C901797F7FDAF
:1019F00003C0E894C1F802C0E1E0F0E0C6018071E4
:101A0000992789879A87C4FE18C0AB89BC892C9115
:101A100011963C91119712964D915D916D917C912B
:101A2000159716968C91169717969C910E941A1DE1
:101A300021F08D819E81029702C08D819E81960149
:101A4000287033272B873C87C3FC0197AB89BC895F
:101A50004C9011965C90119712966D907D908D90A0
:101A60009C9015971696AC9016971796BC90A981E6
:101A7000BA811896ED90FC901997B1E0EB1AF10835
:101A8000D101AE0DBF1D1C928B839C839F01281B2F
:101A9000390B2D873E87C601827099278F87988BD7
:101AA000812F012E000C990BDC01A154B109A98BE7
:101AB000BA8B32E0E316F10430F489859A85892BDC
:101AC00009F04BC06BC09201A301B401C5010E9493
:101AD0001A1D81F1B1E0EB1AF108C2018F7099274C
:101AE0008A30910514F4C09602C0895A9F4FE98943
:101AF000FA897A9748F49C012062215631092A31EB
:101B0000310510F40E94111DF101EE0DFF1D8083BF
:101B10002B813C81215031092B833C839201A3010D
:101B2000B401C50104E00E944E1B29013A014B019A
:101B30005C01BFCF8D859E85AB81BC818A0F9B1FC9
:101B4000181619063CF21A161B060CF0B6CFEF85D4
:101B5000F889EF2B09F0BECFB0CFAB89BC892C91AF
:101B600011963C91119712964D915D916D917C91DA
:101B7000159716968C91169717969C910E941A1D90
:101B800069F0F101EE0DFF1D31971083B2E0EB1A01
:101B9000F108F101EE0DFF1D80E38083EB85FC85EC
:101BA000EF2B41F0F1E0EF1AF108F101EE0DFF1D0E
:101BB00080E28083A981BA8118964D915C91199732
:101BC000415051094E195F09B1016E0D7F1D86010B
:101BD0002D813E818F8198850E9413189C01EF8191
:101BE000F8858081918190FF09C0A981BA81129600
:101BF0008D919C911397821793070CF4C9016496F9
:061C0000E2E10C94031C5C
:101C0600ACE0B0E0E9E0FEE00C94BA1B89879A8765
:101C16006B837C83FA01DB011296CD90DC901397DF
:101C260014968D919C9115978D839E83ED90FC90D3
:101C36001197E982FA8216960D90BC91A02DAF837A
:101C4600B88720803180428053806480758086808A
:101C560097808101B42DA52DF62DE72D8B869C86C8
:101C66009101A201B301C4010E941A1D4CF40E9405
:101C7600901C8901B42FA52FF62FE72F8B879C8701
:101C8600D7FC04C0E894E1F8E982FA829101A20146
:101C9600B301C401ED80FE800E941A1D1CF08981EB
:101CA60082FF04C081E0E81AF10805C083FF03C083
:101CB60091E0E91AF108CE0101965C018AE0C82E8E
:101CC600D12C2B2F3A2F4F2F5E2F6B857C858B8146
:101CD6009C810E942410FC019101A201B301C40160
:101CE6000E941A1D1CF0898182FF10C03197AF81B6
:101CF600B885AE0FBF1F9101A201B301C4010E94B6
:101D06001A1D14F08BE20AC08DE208C083FF07C0DB
:101D16003197AF81B885AE0FBF1F80E28C930981E2
:101D26001A81AB81BC8118964D915C9119974150EF
:101D360051094E1B5F0B6F8178856E0F7F1F2D81BA
:101D46003E8189859A850E9413189C01E985FA854A
:101D56008081918190FF09C0AB81BC8112968D91E3
:101D66009C911397821793070CF4C9012C96E2E114
:041D76000C94031CAA
:101D7A000F931F93CF93DF93FC01D9016838710544
:101D8A0031F194F461387105B1F12CF460387105C0
:101D9A0009F478C09FC06238710509F459C06438E3
:101DAA00710509F46FC096C0603A710509F448C01C
:101DBA002CF46039710509F44BC08CC0603C710584
:101DCA0009F476C0603F710509F472C083C0CD91F1
:101DDA00DC911197CE0102968D939C93452B39F095
:101DEA009881892F880F880B908381835BC08881B3
:101DFA008083118268C0CD91DC911197CE0104963F
:101E0A008D939C93452B99F088819981AA81BB81F6
:101E1A00AC01BD01770F440B542FBA018083918323
:101E2A00A283B383448345834683478328C00881BA
:101E3A0019812A813B81008311832283338345C020
:101E4A00CD91DC911197CE0102968D939C9323C07C
:101E5A00CD91DC911197CE0108968D939C93788150
:101E6A0069815A814B813C812D819E818F8170834A
:101E7A00618352834383348325839683878381E0F6
:101E8A0090E02AC0CD91DC911197CE0102968D93F4
:101E9A009C93452BA1F099812881892F880F880B63
:101EAA002083918382838383848385838683E6CF99
:101EBA00CD91DC911197CE0102968D939C93088166
:101ECA001981008311831282138214821582168269
:101EDA001782D5CF80E090E0DF91CF911F910F91CB
:021EEA00089559
:101EEC008F929F92AF92BF92CF92DF92EF92FF921E
:101EFC00CF93DF930E944C180E949B19C2E0D0E64E
:101F0C00CA84DB84EC84FD84689412F8F594E7941D
:101F1C00D794C7941694D1F78A899B89A0E0B0E036
:101F2C00880F991FAA1FBB1FC81AD90AEA0AFB0AF5
:101F3C00C701B60195958795779567959B01AC017F
:101F4C000E94801C9B01AC01012E1CE0559547950D
:101F5C00379527951A95D1F7102D6E89862F660F18
:101F6C00990BAA0BBB0B880F991FAA1FBB1F880FBD
:101F7C00991FAA1FBB1FBC01CD01660F771F881FBD
:101F8C00991F660F771F881F991F0E94801C4B0199
:101F9C005C01072E7EE0B594A794979487947A956C
:101FAC00D1F7702DAC89BD89A70196010E94331D14
:101FBC00DC01CB01072E7BE0B595A795979587950E
:101FCC007A95D1F7702D880D991DAA1DBB1D8BAB71
:101FDC009CABADABBEAB6C017D01CC0CDD1CEE1C27
:101FEC00FF1CCC0CDD1CEE1CFF1C8C0D9D1DAE1DB6
:101FFC00BF1D80589F4FAF4FBF4F892F9A2FAB2FCC
:10200C00BB27A7FDBA95BC01CD016E5C7F4F8F4FEE
:10201C009F4F24E630E040E050E00E941B1C2FABA9
:10202C0038AF49AF5AAFDF91CF91FF90EF90DF906F
:0C203C00CF90BF90AF909F908F900895C0
:10204800A2E1B0E0EAE2F0E10C94BA1BFC010A8BD1
:102058001B832C83732E642E552E462E7D83CC86AF
:10206800D886AE82BF82268137812A873B87D501F1
:102078008D919C9122813381408551851A01B1E06F
:102088002B1A310837FF02C021E030E0EA85FB85D2
:10209800E20DF31D10824701E1E0F0E0E983FA83E5
:1020A800A9014E195F094D875E87DC01A270BB2725
:1020B800AF87B88BB885BB0FBB0BB98B2114310424
:1020C80009F450C02A893B814C81572D662D752D06
:1020D800842D9D810E941A1DB1F1E1E02E1A31086C
:1020E800FC85F987AF2EB884C988DC2CEC2CFC2C35
:1020F8000C2D1C2D2A893B814C81572D662D752D61
:10210800842D9D810E94BD1CC90129839A83EA857B
:10211800FB85E20DF31D805D808321E0821A910822
:102128002A893B814C81572D662D752D842D9D81E3
:102138000E94BF1C2A8B3B834C83752E662E572E1C
:10214800482E9D83BBCF8D859E85880D991D1816B9
:1021580019061CF2181419042CF44F855889452BBC
:1021680009F0BBCF89819A81892B41F4AE81BF8167
:102178008D919C9111978F7E8D939C93C10162964E
:06218800E2E10C94031CCF
:10218E000F931F93CF93DF9380912A60811175C0B7
:10219E0080910260882319F080E00E94701920E07F
:1021AE0043E060E070E08EE890E00E94BD11C2E076
:1021BE00D0E6BB2797FDBA95A92F982F872F888F2A
:1021CE00998F20E044E060E070E080E090E90E94AA
:1021DE00BD11072F182F292F332727FD3A950A8F68
:1021EE001B8F9C8F20E043E060E070E084E990E07C
:1021FE000E94BD11BB27A92F982F872F8D8F9E8FE1
:10220E0020E043E060E070E086E990E00E94BD11BE
:10221E00BB27A92F982F872F8F8F98A320E043E0FD
:10222E0060E070E088E990E00E94BD11BB27A92F05
:10223E00982F872F8AA399A320E043E060E070E0F7
:10224E008CE990E00E94BD11BB27A92F982F872FF4
:10225E008BA39CA320E044E060E070E080E09EE968
:10226E000E94BD11072F182F292F332727FD3A95CE
:10227E000DA31EA39FA381E088A7DF91CF911F918D
:04228E000F9108950F
:102292008F929F92AF92BF92CF92DF92EF92FF9274
:1022A2000F931F938B019C011127032F000F111F06
:1022B20027FB00F9222733271127A8014F5751097D
:1022C200473151050CF045C057FD2DC00FEF1FEFF0
:1022D2002FE730E004C035952795179507954A9565
:1022E200D2F74801590186229722A822B9228928C9
:1022F2008A288B2871F197FF07C0DC01CB01800F80
:10230200911FA21FB31F02C0DC01CB0100951095E3
:102312002095309580239123A223B323482F392F70
:102322002A2F5B2F1AC097FF0FC08B019C01000F51
:10233200111F221F331F012B022B032B51F040E0F0
:1023420030E020E85FEB09C040E030E020E050E000
:1023520004C0462F372F282F592F642F732F822F17
:10236200952F1F910F91FF90EF90DF90CF90BF902C
:08237200AF909F908F90089539
:10237A004F925F926F927F92AF92BF92CF92DF920B
:10238A00EF92FF920F931F93CF93DF9300D000D069
:10239A00CDB7DEB769837A838B839C8380E8809389
:1023AA006604E42EF12C8701020F111D1016110686
:1023BA00ACF5A42EC12CD12CB12C412C512C3201BC
:1023CA0081E0E81AF108BA1458F4F701EC19FD098A
:1023DA0081E090E08C0F9D1FE80FF91F808101C0FA
:1023EA0080E00E94CB1C90E0A0E0B0E0CC0CDD1CA9
:1023FA00CC0CDD1CCC0CDD1C04C0880F991FAA1F55
:10240A00BB1FCA94D2F7482A592A6A2A7B2AB3944C
:10241A00CB2CD12CC016D106B4F203C0412C512CBE
:10242A00320180E880936504C301B2012496CDBFCE
:10243A00DEBFDF91CF911F910F91FF90EF90DF9058
:10244A00CF90BF90AF907F906F905F904F9008951C
:10245A0010C00E94601D58F00E94591D40F029F4D6
:10246A005F3F29F00C947C1D51110C94681D0C944B
:10247A009A1D0E94AA1A68F39923B1F3552391F37E
:10248A00951B550BBB27AA2762177307840738F0D9
:10249A009F5F5F4F220F331F441FAA1FA9F335D036
:1024AA000E2E3AF0E0E832D091505040E695001CEA
:1024BA00CAF72BD0FE2F29D0660F771F881FBB1FA4
:1024CA00261737074807AB07B0E809F0BB0B802D82
:1024DA00BF01FF2793585F4F3AF09E3F510578F0AE
:1024EA000C947C1D0C94681D5F3FE4F3983ED4F372
:1024FA00869577956795B795F7959F5FC9F7880F82
:10250A00911D9695879597F90895E1E0660F771FD3
:10251A00881FBB1F621773078407BA0720F0621B64
:0E252A00730B840BBA0BEE1F88F7E095089533
:10253800CF92DF92EF92FF920F931F93CF93DF9387
:1025480080913460811157C080910260882319F00E
:1025580080E00E94701920E044E060E070E080E0D4
:1025680091EE0E94BD11C72ED82EE92EFF24C2E09D
:10257800D0E6F701E295F295F07FFE27E07FFE278F
:102588009C012F7033272E2B3F2B29A73AA7B70181
:10259800A601032E3CE076956795579547953A95A1
:1025A800D1F7302D4F705527C601992782959295FE
:1025B800907F9827807F9827842B952B8BA79CA7A3
:1025C80020E044E060E070E080E094EE0E94BD11FD
:1025D800072F182F292F33270DA78EA72FA720E005
:1025E80043E060E070E087EE90E00E94BD1178ABB8
:1025F80089AB81E08AABDF91CF911F910F91FF905A
:08260800EF90DF90CF900895E0
:10261000CF93DF93DC01F90164387105D9F164F4DB
:102620006138710521F16238710509F440C06038E4
:10263000710509F054C02EC060397105C1F184F4F0
:102640006838710509F04BC0C081D181CE01029676
:1026500080839183E881F981ED93FC9340833CC0B2
:10266000603A7105B9F0603C7105A1F038C0C081D5
:10267000D181CE01029680839183E881F981ED9327
:10268000FC93052E000C660B770B4083518362830D
:10269000738322C0C081D181CE0102968083918351
:1026A000E881F981ED93FC934083518315C0C0818B
:1026B000D181CE01029680839183E881F981ED93E7
:1026C000FC9340835183852F880F880B82838383FB
:1026D000848385838683878381E090E002C080E0E5
:0826E00090E0DF91CF91089515
:1026E800CF93DF93282F30E0F901EE0FFF1FED564F
:1026F800FF49A081B1819C91E0E0F6E090871196B6
:102708009C919093B00091E09287958590FFFDCFC2
:102718006091100670911106DB01B295A295AF7019
:10272800AB27BF70AB278330F1F0220F331FF901BD
:10273800ED56FF490190F081E02DC0919960D0914C
:102748009A602A813B810E94A01CDC01CB01072EE4
:102758007CE0B695A795979587957A95D1F7702DD2
:102768008283938321C0220F331FF901ED56FF495D
:10277800C081D181CD01A0E0B0E0BC01CD01052E22
:102788005AE0660F771F881F991F5A95D1F7502D69
:102798000E949D172DEC3CEC4CEC53E40E94921DDA
:1027A8000E94E5186A837B8382E080930A06DF91A2
:0427B800CF91089520
:1027BC000FC00E94591D38F00E94601D20F0952317
:1027CC0011F00C947C1D0C949A1D11240C94681D12
:1027DC000E94AA1A70F3959FC1F3950F50E0551FF4
:1027EC00629FF001729FBB27F00DB11D639FAA275A
:1027FC00F00DB11DAA1F649F6627B00DA11D661FA9
:10280C00829F2227B00DA11D621F739FB00DA11DC9
:10281C00621F839FA00D611D221F749F3327A00D83
:10282C00611D231F849F600D211D822F762F6A2F1F
:10283C0011249F5750409AF0F1F088234AF0EE0F84
:10284C00FF1FBB1F661F771F881F91505040A9F7B1
:10285C009E3F510580F00C947C1D0C94681D5F3FCD
:10286C00E4F3983ED4F3869577956795B795F795ED
:10287C00E7959F5FC1F7FE2B880F911D9695879565
:04288C0097F908951B
:10289000A2E0B0E0EEE4F4E10C94BA1B1C014B01A1
:1028A000FA01DB0112962D913C91139714964D90ED
:1028B0005C9015978D919C91119789839A831696B8
:1028C0006D907C90179737FD03C08D7F89839A8325
:1028D0000081118122813381448155816681778114
:1028E000FE0131965F0188E0C82ED12C7201C4012F
:1028F0000E942410298124FF06C00197F301E80FEC
:10290000F91F20E32083298123FF06C00197F301EB
:10291000E80FF91F20E2208309811A81D40118965B
:102920004D915C91199741505109481B590BB301C6
:10293000680F791F9201C1010E9413189C01F101D7
:102940008081918190FF08C0D40112968D919C9155
:102950001397821793070CF4C9012296E2E10C94B5
:02296000031C56
:1029620011C00E94591D38F00E94601D20F039F4F8
:102972009F3F19F426F40C949A1D0EF4E095E7FBA0
:102982000C947C1DE92F0E94AA1A58F3BA17620709
:1029920073078407950720F079F4A6F50C94671D58
:1029A2000EF4E0950B2EBA2FA02D0B01B901900168
:1029B2000C01CA01A0011124FF27591B99F0593FAC
:1029C20050F4503E68F11A16F040A22F232F342FF4
:1029D2004427585FF3CF469537952795A795F04042
:1029E2005395C9F77EF41F16BA0B620B730B840B57
:1029F200BAF09150A1F0FF0FBB1F661F771F881F0F
:102A0200C2F70EC0BA0F621F731F841F48F4879566
:102A120077956795B795F7959E3F08F0B0CF939558
:0E2A2200880F08F09927EE0F97958795089575
:102A30000F931F93CF93DF9390910560981309C074
:102A400090910660961305C090910760941709F461
:102A50004CC0142FD62FC82F80910260811103C063
:102A600081E00E947019612F70E0762F6627AB011C
:102A7000446F6D2F70E0762F6627770F770F642BEA
:102A8000752B8C2F90E0982F88279295990F907E28
:102A9000682B792BCB01A0E0B0E0BC01CD018467AD
:102AA00021E043E00E94BD11892F9927AA27BB2767
:102AB000E2E0F0E68C019D01689414F836952795C4
:102AC000179507951694D1F7077003838C019D0124
:102AD0003695279517950795369527951795079558
:102AE00007700483682F63706583DF91CF911F9116
:042AF0000F910895A5
:102AF4008F929F92AF92BF92EF92FF920F931F9388
:102B0400CF93DF9383E00E94741382E00E947413D6
:102B140081E00E94741380E00E947413E3E9F0E6FC
:102B2400E080F180C281D38106811781F70162813F
:102B3400738180E090E00E949D174B015C01F801D5
:102B44006281738180E090E00E949D179B01AC013B
:102B5400C501B4010E94921D20E030E040EF51E431
:102B64000E94961D0E94E51870E0F7016483758346
:102B7400F801628173817695679576956795769568
:102B840067958A819B810E94471C77276C837D838C
:102B9400DF91CF911F910F91FF90EF90BF90AF9075
:062BA4009F908F90089540
:102BAA00A2E0B0E0EBEDF5E10C94BA1B3C014B015D
:102BBA00FA01DB0112962D913C91139714964D90D0
:102BCA005C9015978D919C91119789839A8316969B
:102BDA002D903C90179737FD03C08D7F89839A8388
:102BEA0000811181228133814481558166817781F7
:102BFA00FE0131965F018AE0C82ED12C7201C40110
:102C0A000E94241009811A81D40118964D915C9171
:102C1A00199741505109481B590BB101680F791F87
:102C2A009201C3010E9413189C01F30180819181D2
:102C3A0090FF08C0D40112968D919C911397821728
:0E2C4A0093070CF4C9012296E2E10C94031CDE
:102C58000F931F93CF93DF9390910360981305C050
:102C680090910460961709F443C0D62FC82F80911D
:102C78000260811103C081E00E9470198D2F90E0DD
:102C8800A0E0B0E0BA2FA92F982F8827AC01BD018A
:102C9800456F65678C2F90E0A0E0B0E0072E7AE0E2
:102CA800880F991FAA1FBB1F7A95D1F7702D8A012B
:102CB8009B01082B192B2A2B3B2BC901B80121E0BA
:102CC80043E00E94BD11892F9927AA27BB27E2E07C
:102CD800F0E68C019D013695279517950795369551
:102CE80027951795079507700183682F6170628390
:0A2CF800DF91CF911F910F91089515
:102D020088249924F401E401B0E49F93AA279A1538
:102D12008B049C04ED05FE05CF05D007A10798F4AE
:102D2200AD2FDC2FCF2FFE2FE92D982C892E982F37
:102D3200872F762F652F542F432F322F2227B850FB
:102D420031F7BF9127C01B2EBF91BB27220F331F24
:102D5200441F551F661F771F881F991F881C991CC7
:102D6200EE1FFF1FCC1FDD1FAA1FBB1F8A149B046F
:102D7200EC05FD05CE05DF05A007B10748F08A186E
:102D82009B08EC09FD09CE09DF09A00BB10B2160FC
:102D92001A94E1F62EF49401AF01BE01CD01000CAC
:022DA200089592
:102DA4000F931F93CF93DF93DB01109719F48FEFE9
:102DB4009FEF3DC02D913C91119730FF25C0169691
:102DC4004D915C91179714962D913C91159742174C
:102DD400530778F41296ED91FC9113978083129621
:102DE4002D913C9113972F5F3F4F12962D933C9357
:102DF400139716962D913C9117972F5F3F4F169678
:102E04002D933C93179713C01C96ED91FC911D973D
:102E1400309769F2EB01092F182F0995892B39F6A0
:102E24008E819F8101968E839F83812F902FDF91C6
:082E3400CF911F910F91089549
:102E3C00A0E1B0E0E4E2F7E10C94C41BFB01BA01A1
:102E4C00AE014F5F5F4F6A0140E1D6011D924A957A
:102E5C00E9F742E051E049835A838B839C83F7FF67
:102E6C0009C08FE490E080930060909301608FEF35
:102E7C009FEF1CC0309729F0AF01415051094D8391
:102E8C005E83A9018F017C01C6010E94EB1B011519
:102E9C00110561F04F8158852D813E8142175307F2
:102EAC0008F49A01F701E20FF31F10826096E8E034
:042EBC000C940D1C49
:102EC000CF93DF9390910960981304C090910860AC
:102ED000961781F1C62FD82F80910260811103C00F
:102EE00081E00E9470196C2F70E070E4679F702D74
:102EF00066271124626F7D2BCB01A0E0B0E0BC01FE
:102F0000CD01826721E043E00E94BD11892F9927FE
:102F1000AA27BB27E2E0F0E6282F277027836894D2
:102F200015F8B695A795979587951694D1F7682FBC
:0A2F300061706683DF91CF91089570
:102F3A00E89409C097FB3EF4909580957095619549
:102F4A007F4F8F4F9F4F9923A9F0F92F96E9BB27FF
:102F5A009395F695879577956795B795F111F8CF7B
:102F6A00FAF4BB0F11F460FF1BC06F5F7F4F8F4FE6
:102F7A009F4F16C0882311F096E911C0772321F0DC
:102F8A009EE8872F762F05C0662371F096E8862F74
:102F9A0070E060E02AF09A95660F771F881FDAF7CB
:0A2FAA00880F9695879597F9089512
:102FB4000E94B5181F928F93E3E9F0E6A481B581CE
:102FC40013968C9113978F9312968C918F93A28161
:102FD400B38114968D919C91159799279F938F9304
:102FE4000190F081E02D8481958199279F938F939F
:102FF400E2E0F0E6809141601F928F9384AD8F935D
:1030040083AD8F9387A91F928F9382E092E89F9359
:103014008F930E942E1B8DB79EB740968DBF9EBF87
:0230240008950D
:10302600A0E0B0E0E9E1F8E10C94C01B6C015B01A3
:103036007A01E901480181E08822992400FD03C054
:103046004217530750F0A701B501C6010E946A1B3B
:10305600EC16FD0610F0C70117C08E010E191F09E8
:103066000115110541F0B60180E290E00E94D216EA
:1030760001501109F5CF8114910429F4A701B50176
:10308600C6010E946A1BCE01CDB7DEB7ECE00C94F8
:02309600091C13
:103098000F931F93CF93DF9380911960811128C0FC
:1030A80080910260882319F080E00E94701920E066
:1030B80043E060E070E089EE90E00E94BD11C2E05C
:1030C800D0E6BB27A92F982F872F8A8B9B8B20E0D0
:1030D80044E060E070E080E09AE80E94BD11072FAC
:1030E800182F292F33270C8B1D8B9E8B81E08F8BFC
:0A30F800DF91CF911F910F91089511
:10310200A2E8B0E0E7E8F8E10C94C01B5C014A01D8
:1031120069837A83C12CD12CE981FA818081882349
:10312200E9F07401860120E830E0AE014D5F5F4FA7
:10313200BE016F5F7F4FC5010E94BA078C0D9D1DB6
:103142008C159D054CF48FE490E080930060909381
:1031520001608FEF9FEF03C06C01DECFC601CE5737
:08316200DF4FECE00C94091CA6
:10316A00CF93DF93CDB7DEB72897CDBFDEBFE2E0BE
:10317A00F0E687A9898383AD94AD9A838B83809186
:10318A0041608C83E3E9F0E6A081B18114968C91C9
:10319A008D83A281B38114968C918E830480F581EC
:1031AA00E02D83818F838281888768E0CE01019632
:1031BA000E94D31B2896CDBFDEBFDF91CF91089521
:1031CA000E94B21A88F09F5798F0B92F9927B751E1
:1031DA00B0F0E1F0660F771F881F991F1AF0BA95B1
:1031EA00C9F714C0B13091F00E94671DB1E008958B
:1031FA000C94671D672F782F8827B85F39F0B93F7D
:10320A00CCF3869577956795B395D9F73EF4909563
:0E321A008095709561957F4F8F4F9F4F08955F
:103228001F93CF93DF93BC01E0E4F1E0918191110A
:10323800FDCFC0E4D1E011E01F8380E090E00E9460
:103248009D172FE632E143E85FE30E94961D0E9436
:10325800E51880E090E00E949D1720E030E040E013
:103268005FE30E94531D0E94E5186A877B871886D2
:0C32780019861883DF91CF911F910895F3
:10328400DC01ED91FC91119780818A3221F080E07C
:1032940090E03AE00EC03196ED93FC93DB01ED91A2
:1032A400FC911197CF0102968D939C93808191811B
:1032B4000895ED91FC911197208120532A3068F4F0
:1032C400389FA001399F500D1124CA01820F911D0E
:0C32D4003196ED93FC931197ECCF089518
:1032E0002091026030E0482F50E02417350711F19B
:1032F000813029F080E090E0A3E7B0E004C080E0F6
:1033000090E1A3E7B0E0BC01CD01636F21E043E0B1
:103310000E94BD11892F9927AA27BB27689413F80B
:10332000B695A795979587951694D1F7682F6170F4
:06333000609302600895A5
:1033360080910260811103C081E00E94701921E032
:1033460043E060E070E082EA90E00E94BD11672FE2
:10335600782F892F99270E946E1DBB27A92F982F9A
:10336600872F689413F8B695A79597958795169421
:10337600D1F780930C6090930D60A0930E60B0938C
:043386000F60089537
:10338A0080910260811103C081E00E94701921E0DE
:10339A0043E060E070E08FE990E00E94BD11672F82
:1033AA00782F892F99270E946E1DBB27A92F982F46
:1033BA00872F689413F8B695A795979587951694CD
:1033CA00D1F78093106090931160A0931260B0932C
:0433DA0013600895DF
:1033DE00A0E0B0E0E5EFF9E10C94C21B7C01FB012B
:1033EE00EA01C901A280B380C480D5800081118119
:1033FE00209711F4CBE9D0E6009719F4CE010E9484
:10340E00AF1CB7FC04C0A816B90608F4C501960196
:10341E00AC01BE01C7010E941318CDB7DEB7EAE0BA
:04342E000C940B1CD3
:103432000E94321C0E94401A0E94D81C0E944B1DFE
:103442000E94E51C88EE93E00E941419C0E4D1E0CA
:10345200DD24D39400E014E06894FF24F2F8EF2C0A
:103462008B8180FFFDCFDB82F801E5820E947A1515
:0E3472000E94A11B0E94DA17F801F682F1CF2A
:10348000A0E0B4E08CE911968C93119790E212962B
:103490009C931297E0E4F4E084E0818B828B838B31
:1034A000E0E6F4E020ED2183928390E1968398E0BA
:1034B000958B90E4958392E015969C93E0EEF5E071
:0834C00091E0928385830895D9
:1034C800990F0008550FAA0BE0E8FEEF161617062D
:1034D800E807F907C0F012161306E407F50798F095
:1034E800621B730B840B950B39F40A2661F0232BAE
:1034F800242B252B21F408950A2609F4A140A6952A
:083508008FEF811D811D089564
:10351000EF92FF920F931F93CF93DF938C017C0167
:10352000C0E0D0E006C0F70181917F010E94231D19
:103530002196F80101900020E9F73197E01BF10B8B
:10354000CE17DF0780F3DF91CF911F910F91FF908E
:04355000EF9008955B
:1035540057FD9058440F551F59F05F3F71F0479540
:10356400880F97FB991F61F09F3F79F08795089525
:10357400121613061406551FF2CF4695F1DF08C044
:10358400161617061806991FF1CF86957105610561
:0435940008940895FA
:10359800A1E21A2EAA1BBB1BFD010DC0AA1FBB1F4F
:1035A800EE1FFF1FA217B307E407F50720F0A21BC1
:1035B800B30BE40BF50B661F771F881F991F1A942E
:1035C80069F760957095809590959B01AC01BD0158
:0435D800CF01089582
:1035DC00CF93DF93EC0190E0E92FF0E0EE0FFF1FAB
:1035EC00E35AFF498081811102C081810EC0A881FC
:1035FC00B9812C91821305C091811196A883B9834E
:10360C0001C09F5F9B3040F3892FDF91CF910895CC
:10361C00FA0160387105CCF0623871051CF0633822
:10362C00710599F4A081B1819D012C5F3F4F2083DE
:10363C0031834D915D916D917C91FC01408351835F
:10364C006283738381E090E0089580E090E00895B8
:10365C00CF93DF93CDB7DEB76E97CDBFDEBF9E01A4
:10366C002D5D3F4FF901419151919F016EE170E049
:10367C00CE0101960E941E17CE0101960E94881A57
:0C368C006E96CDBFDEBFDF91CF91089598
:1036980097FB10F8169400080F93083098F008501C
:1036A800232F342F452F562F672F782F892F902DB2
:1036B800F4CF05949795879577956795579547958E
:0C36C800379527950A95AAF70F910895F1
:1036D400A0E0B0E0E0E7FBE10C94C41B6C01EB015B
:1036E4008A017B01E40EF51ECE15DF0541F08991B8
:1036F400B601082E000C990B0E94D216F5CFC80112
:0A370400CDB7DEB7E8E00C940D1C11
:10370E0080910260811103C081E00E94701921E056
:10371E0042E060E075EA80E090E00E94BD11BB27B8
:10372E00A92F982F872F782F692F60930A60709397
:04373E000B6008957F
:1037420060E085E00E94601741E065E085E00E944C
:10375200181560E087E00E942C160E94990B0E94C7
:10376200760F0E94BE0940E065E085E00E941815D0
:023772000895B8
:103774002F923F924F925F926F927F928F929F927D
:10378400AF92BF92CF92DF92EF92FF920F931F936B
:10379400CF93DF93CDB7DEB7CA1BDB0BCDBFDEBF44
:0237A400099486
:1037A6006623A1F0DC016150262F30E02F5F3F4FEA
:1037B600280F391F8FEFED918E27E82FF0E0EE5F8F
:1037C600FE478081A217B307B1F708958FEF0895DA
:1037D600A2E0B0E0E1EFFBE10C94C81B8C01498349
:1037E6005A83AE014F5F5F4F0E948118F801208116
:1037F60024FF02C08FEF9FEF2296E4E00C94111C89
:103806002A88398848885F846E847D848C849B846A
:10381600AA84B984C884DF80EE80FD800C811B8178
:10382600AA81B981CE0FD11DCDBFDEBFED010895AE
:10383600052E97FB1EF400940E942B1D57FD07D002
:103846000E94CC1A07FC03D04EF40C942B1D509505
:0E3856004095309521953F4F4F4F5F4F08959D
:1038640060E080E690E00E94821D64E288E690E0D9
:103874000E94821D60E081E690E00E94821DE0E6E5
:0A388400F0E0858180FDFDCF08957E
:10388E00AA1BBB1B51E107C0AA1FBB1FA617B70778
:10389E0010F0A61BB70B881F991F5A95A9F7809594
:0838AE009095BC01CD010895C5
:1038B60097FB072E16F4009407D077FD09D00E94D7
:1038C600471C07FC05D03EF4909581959F4F0895BF
:0838D600709561957F4F089584
:1038DE00092E0394000C11F4882352F0BB0F40F410
:1038EE00BF2B11F460FF04C06F5F7F4F8F4F9F4F50
:0238FE0008952B
:10390000DB018F939F930E94F21CBF91AF91A29F06
:10391000800D911DA39F900DB29F900D11240895CD
:10392000609570958095909530954095509521952E
:103930003F4F4F4F5F4F6F4F7F4F8F4F9F4F0895B8
:10394000A29FB001B39FC001A39F700D811D1124E0
:0E395000911DB29F700D811D1124911D0895CF
:10395E00FC01AF014F5F5F4F2081222311F0FA016E
:0C396E00F8CF9F01281B390BC9010895F8
:10397A00689401C0E8948F929F92CF93DF930E943C
:0C398A008116DF91CF919F908F900895DF
:1039960080934409E0E4F9E083818823ECF7E0E4CE
:0A39A600F9E080E88383848108952E
:1039B000E0E0F8E081E493E08087918781E085830F
:0A39C00082E4868383E08783089584
:1039CA00E0E0F6E084E081838DE082838FEA8383FE
:0A39DA008FEF858381E0808308955C
:1039E4000E94A01CA59F900DB49F900DA49F800DD4
:0639F400911D112408954D
:1039FA00EC010E94A21D0E94A11DCE010E94A31DDE
:063A0A00CE010E949F1D89
:103A1000FC01480F591FE417F50711F06193FBCF24
:023A2000089507
:103A22009C01215631092A31310510F48F759927ED
:023A32000895F5
:103A34002115310541055105610571058105910582
:023A44000895E3
:103A4600E0E0F8E0948195FFFDCF809302080895A9
:103A560090958095709561957F4F8F4F9F4F0895F4
:103A6600B7FF0C94F21C0E94F21C821B930B089564
:103A7600FC01DB012D91BD0121932111FACF08959F
:103A86009C01215431092A31310508F480620895D8
:0E3A9600E0E4F9E081E2808384E0818308951A
:0E3AA4005058BB27AA270E94B1140C946F1C27
:0E3AB20000240A941616170618060906089531
:0E3AC00000240A941216130614060506089533
:0E3ACE00E894BB2766277727CB0197F9089568
:0E3ADC00692796276927782787277827089576
:0E3AEA000E94E5186894B1110C94681D0895AF
:0C3AF80097F99F6780E870E060E0089597
:0C3B0400DC0128ED209334006C93089540
:0A3B10000E94641A08F481E0089591
:0A3B1A000E94641A08F48FEF08956A
:083B24000E942D120C946F1C8D
:083B2C000E94DE130C946F1CD3
:063B34009FEF80EC0895F4
:043B3A000C940000E7
:043B3E000E947F0062
:023B42000895E4
:023B44000895E2
:023B46000895E0
:103B48001D05000000001E05000000001F05000004
:083B580000004400050D00000F
:103B600068076C094C836A9074A07AC000806888EA
:063B700000846C8200815C
:103B7600494E4600696E66004E414E006E616E000B
:103B8600494E4600696E66004E414E006E616E00FB
:083B960045604B60516057606F
:073B9E00286E756C6C290014
:063BA500286E696C290086
:02000004008278
:090000000000000000D110000016
:02000004008377
:040000005CC5C55CBA
:00000001FF
