:100000000C944E000C94BE1C0C94BE1C0C94BE1C94
:100010000C94BE1C0C94BE1C0C94BE1C0C94BE1CF8
:100020000C94BE1C0C94BE1C0C94BE1C0C94BE1CE8
:100030000C94BE1C0C94BE1C0C94BE1C0C94BE1CD8
:100040000C94BE1C0C94BE1C0C94BE1C0C94BE1CC8
:100050000C94BE1C0C94BE1C0C94BE1C0C94BE1CB8
:100060000C94BE1C0C94BE1C0C94BE1C0C94BE1CA8
:100070000C94BE1C0C94BE1C0C94BE1C0C94BE1C98
:100080000C94BE1C0C94BE1C0C94BE1C0C94BE1C88
:100090006000605580605560B000398A8091011021
:1000A0008F7C8060806898ED94BF8093011011244C
:1000B0001FBECFEFCDBFDFE7DEBFE0E9F0E040E0FD
:1000C00017C0B591A59135912591059107FD0CC0FB
:1000D00095918591EF01F92FE82F05900D92A217C8
:1000E000B307D9F7FE0104C01D92A217B307E1F7C9
:1000F000EC39F40731F70E94900D0C941E1CF89413
:02010000FFCF2F
:1001020054656D70657261747572653A2533644326
:10011200B0200050726573737572653A202534649D
:10012200685061200048756D69646974793A2025C8
:1001320033642520004D43553A2025646D560057FF
:10014200533A2025646D560057443A2025646D5673
:0A01520000534C3A2025646D56005E
:10015C00A5E2B0E0E4EBF0E00C94E81A8E8F9F8FF0
:10016C006E8B7F8B298FFB010190F081E02DE9874D
:10017C00FA87FB0102811381248135812A8B3B8B09
:10018C008085918588A399A326803780FA01808089
:10019C009180A280B38020E030E0A901C501B401B8
:1001AC000E94A91C87FF06C0B7FAB094B7F8B094A8
:1001BC008DE204C0598552FF54C38BE2F101808358
:1001CC002A893B89215031092B833C8341E050E043
:1001DC00488B598B06C08A899B898B839C83188A90
:1001EC00198AD501C401BF770097E0E8AE07EFE7A5
:1001FC00BE0799F4F98D2F2FFF0F330B21543109C2
:10020C0088899989820D931D2A31310518F46BE880
:10021C0070E619C06FE870E616C00197A048BF479A
:10022C00A8F0498D242F440F330B215431098889B0
:10023C009989820D931D2A31310518F463E970E612
:10024C0002C067E970E60E945C1CFAC220E030E054
:10025C00A901C501B4010E94A91CC12CD12C20E814
:10026C00E22E2FE3F22E19821A82882309F48CC015
:10027C008D829E82AF82B88620E030E040E251E46D
:10028C00C701B6010E94B71C2B013C01D501C4016A
:10029C0084199509A609B709B7FF07C0B095A095B1
:1002AC00909581959F4FAF4FBF4F0297A105B10518
:1002BC0044F489819A81019689839A83730162013E
:1002CC00DBCFA5019401C301B2010E94A91C87FDDB
:1002DC00F0CF8D819E81AF81B8858C199D09AE09B7
:1002EC00BF090196A11DB11D0397A105B10508F425
:1002FC0049C01D821E82A5019401C701B6010E944E
:10030C00AE1C18160CF040C0E981FA81E43DFE4F9A
:10031C00E4F44D815E81452BC1F420E030E040E8EF
:10032C005AE5C501B4010E94B71C4B015C0120E0E9
:10033C0030E040E85AE5C701B6010E94B71C6B01DA
:10034C007C0181E090E08D839E8320E030E040E2F0
:10035C0051E4C701B6010E94B31C6B017C01E98119
:10036C00FA813197E983FA83D501C4018C199D096F
:10037C00AE09BF090196A11DB11D0397A105B105D9
:10038C0008F0B9CF46015701F98D8F2FFF0F990B4C
:10039C000E94641C888F17FD03C00D831E8304C04C
:1003AC0026E030E02D833E83388D373639F4012B2F
:1003BC0041F441E050E04D835E8303C0288D2F87CC
:1003CC0014C089819A818C3F9F4F0CF44FC2898154
:1003DC009A81ED81FE818E179F070CF047C229810F
:1003EC003A8137FF46C236E63F874D815E814F5FCB
:1003FC005F4F4D835E835F855636B9F489819A8150
:10040C0097FF08C0C12CD12C90E8E92E9FE3F92E60
:10041C0019821A82988D973641F0ED81FE812981DF
:10042C003A81E20FF31FED83FE831C2DDCA2EAA2BE
:10043C000F2D8B869C86AD86BE861C8A1D8A8C8968
:10044C009D89ED81FE818E179F07DCF5212F3CA144
:10045C004AA1502F6B857C858D859E850E94B31C8F
:10046C000E948E112B013C010E94961C6A8FA301E5
:10047C009201612F7CA18AA1902F0E94B71C2B8521
:10048C003C854D855E850E948F1C9B01AC015058AC
:10049C002B873C874D875E8720E030E040E251E4BB
:1004AC00612F7CA18AA1902F0E94B31C162F7CA3D4
:1004BC008AA3092F4C895D894F5F5F4F4C8B5D8BF5
:1004CC00BECF20E030E040EA50E4612F7CA18AA14D
:1004DC00902F0E94B71C2B013C019B01AC016B853A
:1004EC007C858D859E850E94A91C87FD0DC0A3016E
:1004FC0092016B857C858D859E850E94A91C81113E
:10050C0006C0FA8DF0FD03C0412C512C3201A5011F
:10051C009401C301B2010E94901C4B015C0120E0CC
:10052C0030E040E251E4C701B6010E94B71C6B8772
:10053C007C8B182F092F9B01482F592FC501B40113
:10054C000E94AE1C87FD14C029813A812F5F3F4F5A
:10055C0029833A833F85363679F44D815E814F5F2E
:10056C005F4F4D835E835B855CA38C898DA30BC031
:10057C00CB86DC8A1E2D0F2D9F85953639F0EB85A9
:10058C00ECA3FC89FDA3E980FA8006C02B852CA383
:10059C003C893DA3E12CF12C48885988C12CD12CE5
:1005AC001C8A1D8A1B861C8649855A8540715527D5
:1005BC004AA35BA32B853C854D815E8124173507AF
:1005CC0034F08C899D89892B09F494C09FC0320129
:1005DC00EE89FF898085918505974816590688F71D
:1005EC002CA13DA1412F502FC501B4010E94B31C79
:1005FC000E948E116A8F7B8F8C8F9D8F0E94961C10
:10060C006A30710514F069E070E08AA19BA1892B16
:10061C0069F46115710551F4988D973639F4F7FE2C
:10062C0005C03601EFEF6E1A7E0A38C02C893D8961
:10063C00232B99F4F7FE11C03FEF431A530AF10133
:10064C00E60DF71D4EE240838B819C8101978B83D5
:10065C009C83E1E0F0E0EC8BFD8BF101E40DF51DEA
:10066C0036016114710431F020E3219331E0631AF7
:10067C007108F7CFC601840D951D2B813C812C1977
:10068C003D092C014FEF441A540AF101E80FF91FF0
:10069C00605D6083C90101978B839C832A8D3B8DA0
:1006AC004C8D5D8D6CA17DA1812F902F0E94B71C6C
:1006BC00A50194010E948F1C4B015C01B7FAB09408
:1006CC00B7F8B09420E030E040E251E46CA17DA199
:1006DC00812F902F0E94B31C6CA37DA3182F092F80
:1006EC0091E0E91AF108EB85FC853196EB87FC87E4
:1006FC00630160CFF985F4FF09C0F101E40DF51D2C
:10070C008EE2808392012F5F3F4F2901A101440D9E
:10071C00551D4D835E83FA011082FF85F53609F075
:10072C0063C0E8A1F9A1E20DF31D31971082298174
:10073C003A8137FF08C031952195310929833A83D5
:10074C0001E010E002C000E010E0E8A1F9A131974F
:10075C00E20DF31D22E030E08AE0E82EF12CCF010F
:10076C008219930949815A81452B91F089819A818B
:10077C00B7010E945D1B805D829369837A8321504F
:10078C0031094B815C81415051094B835C83E7CF2C
:10079C00121613065CF3FC013197E20DF31D012BCD
:1007AC0011F42BE201C02DE220830297B101680FF6
:1007BC00791F598D252F550F330B215431092A31AF
:1007CC00310510F025E601C025E4FB0120832B81C7
:1007DC003C81225031092B833C834816590624F462
:1007EC008D819E810E945C1C398531FF29C030FDB2
:1007FC0027C04B815C811416150614F5C1010E94AB
:10080C00C51B820D931D9C012219330948895989F6
:10081C00241735074CF0FC012081EB81FC81E80F9B
:10082C00F91F20830197EFCF4B815C8160E370E06F
:10083C0088899989820D931D0E94291C1A8A1B8A0A
:10084C00C1010E94C51B09851A852A893B89AC0107
:10085C00B1018E8D9F8D0E94C417A596E2E10C9478
:10086C00191B598553FFB7CC80E2A8CCF5E6FF875E
:08087C00DCCD36E63F87D9CD43
:10088400A0E2B0E0E8E4F4E00C94E81A888F998FD1
:10089400FB012C8B20812F8331813A8F82819381BC
:1008A4008A8B9B8B248135812A873B878085918520
:1008B4008B8F9C8F66807780FA01C080D180E28024
:1008C400F38020E030E0A901C701B6010E94A91C11
:1008D40087FF06C0F7FAF094F7F8F0948DE204C0AD
:1008E4005F8152FFDDC28BE2F30180832A853B8561
:1008F400215031092C873D8741E050E04D835E83D0
:1009040006C08A859B858C879D871D821E82B701C0
:10091400A6017F774115510590E869079FE779079C
:10092400B9F4AC892A2FAA0F330B215431098D81D4
:100934009E81860D971D2A31310518F46BE770E608
:1009440002C06FE770E60E945C1C8FE790E698C2D5
:10095400EC892E2FEE0F330B8D819E81860D971D12
:100964004130510560487F4778F0215431092A31DC
:10097400310518F463E870E602C067E870E60E9487
:100984005C1C87E890E67CC240E3FC014083ED8177
:10099400FE813196E60DF71D4D815E814E5F5F4FFE
:1009A4004D835E83C901815491098E8B9F8B4A9735
:1009B40010F088E701C088E5808320E030E0A901D9
:1009C400C701B6010E94A91C1B821C821F8E18A29B
:1009D400882309F469C090E89983AFE3AA832F8D33
:1009E40038A149815A816F8D78A189819A810E94A9
:1009F400901C5B018C01A70196010E94AE1C181685
:100A04000CF447C0EB81FC813196EB83FC83AF8E01
:100A1400B8A209831A83E3CF20E030E040E05FE32B
:100A24006F8D78A189819A810E94B71C20E030E003
:100A3400A9010E94A91C811118C020E030E040E8FF
:100A44005AE56F8D78A189819A810E94B71C6F8FB6
:100A540078A389839A8320E030E040E85AE5C7010F
:100A6400B6010E94B71C6B017C0120E030E040E03D
:100A74005FE36F8D78A189819A810E94B71C6F8F83
:100A840078A389839A832B813C81215031092B835C
:100A94003C832F8D38A149815A81C701B6010E9438
:100AA400A91C87FDB9CF04C030E839834FE34A83DA
:100AB4008A899B8997FF02C088E190E0FC01319606
:100AC400E887F9878F8C98A0A980BA8016018701DE
:100AD400412C512C9401A501B101C8010E94B31C01
:100AE4000E948E116E877F87888B998B9401A50154
:100AF4000E94B71C9B01AC01B101C8010E948F1C6C
:100B04001B018C0120E030E040E85DE3B401C50145
:100B14000E94B71C4B015C01FFEF4F1A5F0A2A8940
:100B24003B8937FF09C020E030E0A901B101C801C9
:100B34000E94A91C882331F048855985441655061E
:100B44004CF202C04886598620E030E040E051E48F
:100B5400B401C5010E94B71C4B015C019B01AC01AF
:100B6400B101C8010E94A91C87FD12C0A50194010E
:100B7400B101C8010E94A91C81110DC06E857F8539
:100B8400888999890E94961C61707727672B19F4CC
:100B9400812C912C5401A5019401C701B6010E9436
:100BA400901C6B017C01DC01CB01BF770097A0484E
:100BB400BF4709F4B6CE2C843D8482E0281A31085C
:100BC400E885F985F195E195F109EC8BFD8B0D81B3
:100BD4001E81412C512C1C861D86188619862B8D4E
:100BE4003C8D255031092D8F3E8F0E871F87ED8D4B
:100BF400FE8D0E171F0708F093C02F8D38A1498171
:100C04005A81C701B6010E94B31C0E948E114B0188
:100C14005C010E94961CAB016115710541F4E885E5
:100C2400F985EF2B21F0FFEF4F1A5F0A4FC02C8597
:100C34003D85232B99F4E885F985EF2B79F00F5F37
:100C44001F4FEE85FF85E60DF71D2EE2208331E070
:100C5400231A3108E1E0F0E0EC87FD87F301E00FAF
:100C6400F11F92012115310529F0A0E3A193215030
:100C74003109F8CFF801E40DF51DEE87FF8724183C
:100C840035084A3051051CF4605D7F4F02C0695A33
:100C94007F4F2E893F892A31310550F4CB01806280
:100CA400815691094A9720F4CB010E94321CBC0161
:100CB4000E851F850F5F1F4FEE85FF85E60DF71D1F
:100CC400608331E0231A3108412C512C2F8D38A137
:100CD40049815A81C501B4010E94B71C9B01AC0132
:100CE400C701B6010E948F1C6B017C0120E030E03B
:100CF40040E85DE36F8D78A189819A810E94B71CD9
:100D04006F8F78A389839A83488559854150510907
:100D1400488759878C899D898417950709F065CF81
:100D24002C853D85232B49F5F301E00FF11F411478
:100D34005104E1F04A895B8914161506BCF45F81FD
:100D440050FD14C08EE28083F8013196E60DF71D44
:100D5400C20120E321930197E9F7040D151D0F5FEC
:100D64001F4F40945094240C351C07C08F8184FF7E
:100D740004C08EE280830F5F1F4FF301E00FF11F69
:100D8400E887F9871082EB8DFC8D3197E60DF71D0E
:100D940010822B813C8137FF09C03195219531099F
:100DA4002B833C83EE24E394F12C02C0E12CF12C40
:100DB40021E030E08AE0C82ED12CCF0186199709B2
:100DC4004B815C81452B79F08B819C81B6010E941B
:100DD4005D1B805D82936B837C832150310941E0EC
:100DE400241A3108EACF2130310571F3FC0131971F
:100DF400E60DF71DE114F10411F42BE201C02DE21C
:100E040020830297B301680F791FEE89FF897A97CF
:100E140010F020E701C020E5FB0120830817190723
:100E240024F4888599850E945C1CFF81F1FF27C00A
:100E3400F0FD25C022E0221A310812141304FCF438
:100E4400C3010E94C51B860D971D9C0126193709F5
:100E54004D815E81241735073CF0FC012081E20DB1
:100E6400F31D20830197F1CFA10160E370E08D8130
:100E74009E81860D971D0E94291C1A861B86C3011C
:100E84000E94C51B0F811A8D2A853B85AC01B301D5
:100E9400888D998D0E94C417A096E2E10C94191BC9
:0A0EA4005F8153FF2ECD80E21FCDC9
:100EAE00A2E1B0E0EDE5F7E00C94EB1A4C016B011A
:100EBE0019821A828FEF9FEF8B839C831D821E8275
:100ECE004F83588729873A87A12CB12CD6016D9074
:100EDE007C90F301EA0DFB1D808181110FC0D601BC
:100EEE00ED93FC938081853209F0D9C13F01BFEFAC
:100EFE006B1A7B0AF6016082718219C0853279F312
:100F0E00B401082E000C990B0E94BC164FEFA41AC8
:100F1E00B40ADCCF8C32ACF08D32F9F489819A812F
:100F2E00816089839A833196D601ED93FC93D60125
:100F3E00ED91FC9180818B3269F789819A81846071
:100F4E00F0CF803221F489819A818860EACF833292
:100F5E0051F489819A818061E4CF803321F48981B3
:100F6E009A818260DECFB701C6010E9495188D83EB
:100F7E009E8397FF0BC029813A81B1E02B272983ED
:100F8E003A839195819591098D839E8389819A816A
:100F9E0080FF03C08D7F89839A83D601ED91FC91EA
:100FAE00119780818E3249F43196ED93FC93B701FF
:100FBE00C6010E9495188B839C83C6010E943A1A23
:100FCE00582ED601ED91FC918081082E000C990BC4
:100FDE000E94641C893609F443C084F4833609F4F4
:100FEE0008C134F4853209F42DC18136E1F036C1E1
:100FFE008436B1F188360CF4DFC030C1803709F485
:10100E009AC03CF48E3609F4C2C08F3609F461C022
:10101E0025C1853709F440C0883709F476C0833777
:10102E0009F01CC1F9C0652D70E0A701CE010B9629
:10103E000E945A1A892B09F42CC1D601ED91FC910C
:10104E001197CF0101968D939C932081AE01455F40
:10105E005F4FBE016F5F7F4FC4010E94420416C1F5
:10106E00652D70E0970141E050E0CE010B960E9495
:10107E000A0F892B09F40DC1F60180819181019629
:10108E0080839183AE01455F5F4FBE016F5F7F4FDF
:10109E00C4010E94500EFAC0652D70E0970140E029
:1010AE0050E0CE010B960E940A0F892B09F4F1C075
:1010BE00D6018D919C91119701968D939C93AE01C3
:1010CE00455F5F4FBE016F5F7F4FC4010E94BF152A
:1010DE00DDC0652D70E0970140E050E0CE010B962B
:1010EE000E940A0F892B09F4D4C0F60180819181E8
:1010FE00019680839183AE01455F5F4FBE016F5FA6
:10110E007F4FC4010E948D14C1C0652D70E0970100
:10111E0040E050E0CE010B960E940A0F892B09F495
:10112E00B8C0D601ED91FC911197CF0101968D9328
:10113E009C93208122C0D701ED91FC911197CF0194
:10114E0002968D939C93008111810B871C871D86BF
:10115E001E861F86188A198A1A8AF6018081918145
:10116E000196808391838B859C85892B29F420E0C1
:10117E0030E04AEA50E684C028E7AE01455F5F4F93
:10118E00BE016F5F7F4FC4010E94650C7FC0A50139
:10119E00400F511F652D70E09701CE010B960E94F6
:1011AE004D13892B09F475C0D6018D919C91119721
:1011BE0001968D939C9373C0652D70E0A701CE01AF
:1011CE000B960E945A1A892B09F463C0D601ED9131
:1011DE00FC911197CF0101968D939C932081AE01C6
:1011EE00455F5F4FBE016F5F7F4FC4010E94AE002F
:1011FE004DC0B0E85B124DC0F60180819181019621
:10120E0080839183D701ED91FC911197CF010296C6
:10121E008D939C93808120C0B0E85B123AC0F6019A
:10122E0080819181019680839183D701ED91FC910C
:10123E001197CF0102968D939C934081518120E0AE
:10124E0030E01EC0B0E85B1224C0F601208131816F
:10125E002F5F3F4F208331838B870DC085E28B87B5
:10126E00D6016D927C9219821A821D821E828FEF98
:10127E009FEF8B839C8321E030E0AE01455F5F4F93
:10128E00BE016F5F7F4FC4010E9442198A0D9B1DE4
:10129E0007C0F60180819181019680839183C501FB
:0812AE006296EFE00C941C1B9A
:1012B6004F925F926F927F928F929F92AF92BF9260
:1012C600CF92DF92EF92FF92CF93DF930E940C11A1
:1012D6000E941819E2E0F0E6809045609090466022
:1012E600A0904760B0904860B594A794979487946F
:1012F6002AEF921AA108B108C501B4019595879500
:101306007795679595958795779567959B01AC0138
:101316000E94961B2B013C019B01AC01012E1BE098
:1013260055954795379527951A95D1F7102DA4A170
:101336000A2E000CBB0B0E94541C6B017C01F59419
:10134600E794D794C794F594E794D794C794A2A149
:10135600B3A1A50194010E94541CDC01CB01880FA6
:10136600991FAA1FBB1FC80ED91EEA1EFB1EF594A5
:10137600E794D794C794F594E794D794C794A58D2A
:10138600B68D0E94541C4B015C01B594A7949794AA
:101396008794278D822F220F990BAA0BBB0B880FE0
:1013A600991FAA1FBB1F880F991FAA1FBB1F880F53
:1013B600991FAA1FBB1F880F991FAA1FBB1F9C013D
:1013C600AD01220F331F441F551FC301B201052E65
:1013D6005DE095958795779567955A95D1F7502D48
:1013E6000E94961BDC01CB01689412F8B595A7956F
:1013F600979587951694D1F7880D991DAA1DBB1D43
:10140600072E72E1B595A795979587957A95D1F7A9
:10141600702D9C01AD0130584F4F5F4FA38DB48D99
:101426000E94131C4B015C01072E7FE0B594A79424
:10143600979487947A95D1F7702D81899289A3899B
:10144600B48940E050E060E170E0481B590B6A0B3C
:101456007B0B80A191A1092E000CAA0BBB0BDC0112
:1014660099278827C80ED91EEA1EFB1E0B2EBCE044
:10147600F594E794D794C794BA95D1F7B02D9A010D
:10148600AB012C193D094E095F09A5E3BCE00E949A
:10149600131C61157105810520E4920798F0A501DA
:1014A60094010E94F819DA01C901880F991FAA1F31
:1014B600BB1F80934D6090934E60A0934F60B09396
:1014C600506010C0660F771F881F991FA5019401F1
:1014D6000E94F81920934D6030934E6040934F6000
:1014E60050935060C2E0D0E6EDE4F0E6C080D180D3
:1014F600E280F380C701B601689412F89595879546
:10150600779567951694D1F74D2C5E2C6F2C772422
:1015160067FC7A949B01AC010E94961B9B01AC016F
:10152600012E1DE055954795379527951A95D1F7C4
:10153600102DA8A5B9A50E94541C4B015C01072ECD
:101546007CE0B594A794979487947A95D1F7702DFB
:10155600A701960155954795379527955595479532
:1015660037952795AEA1BFA10E94541CDC01CB0183
:10157600072E7DE0B595A795979587957A95D1F72E
:10158600702D880E991EAA1EBB1EA3019201C301CF
:10159600B2010E94961B9B01AC01C301B2010E94DD
:1015A600961B9B01AC01AAA5B0E00E94131CDC01AE
:1015B600CB01072E71E1B595A795979587957A95F5
:1015C600D1F7702D880D991DAA1DBB1D4DA1042EA6
:1015D600000C550B660B770B440F551F661F771FC4
:1015E600440F551F661F771F440F551F661F771F31
:1015F600440F551F661F771F440F551F661F771F21
:10160600440F551F661F771F440F551F661F771F10
:10161600840F951FA61FB71F689413F8B595A79555
:10162600979587951694D1F78C0D9D1DAE1DBF1D00
:1016360080839183A283B383DF91CF91FF90EF9054
:10164600DF90CF90BF90AF909F908F907F906F90DC
:061656005F904F90089523
:10165C004F925F926F927F928F929F92AF92BF92B6
:10166C00CF92DF92EF92FF92CF93DF930E94E11221
:10167C000E94B51AC2E0D0E6C0904960D0904A6092
:10168C00E0904B60F0904C60AAA90A2E000CBB0BAA
:10169C00A70196010E94541C24E630E040E050E083
:1016AC000E94311BC701B6010E94961B689415F865
:1016BC0095958795779567951694D1F724E630E044
:1016CC0040E050E00E94311B49015A01A9A90A2EA1
:1016DC00000CBB0BA70196010E94541C24E630E0C1
:1016EC0040E050E00E94311BD501C401820F931FD2
:1016FC00A41FB51F9C01AD01305C4F4F5F4FAEA5D1
:10170C00BFA50E94131C2B013C01032E3AE07594DB
:10171C006794579447943A95D1F7302D8B849C84D9
:10172C00A12CB12C8CA59DA5A0E0B0E0880F991F31
:10173C00AA1FBB1F880F991FAA1FBB1F880F991FB9
:10174C00AA1FBB1F880F991FAA1FBB1F881A990AB3
:10175C00AA0ABB0AA8A90A2E000CBB0BA70196016A
:10176C000E94541C24E630E040E050E00E94311B03
:10177C00DA01C901B595A79597958795A5019401AF
:10178C00281B390B4A0B5B0BCA01B901A30192014F
:10179C000E94961B4B015C012B013C01032E3EE089
:1017AC0075946794579447943A95D1F7302DACA91A
:1017BC000A2E000CBB0BA70196010E94541C24E6B8
:1017CC0030E040E050E00E94311BCBA8D12CE12C42
:1017DC00F12CCC0CDD1CEE1CFF1CCC0CDD1CEE1C0F
:1017EC00FF1CCC0CDD1CEE1CFF1CCC0CDD1CEE1C01
:1017FC00FF1CCC0CDD1CEE1CFF1CCC0CDD1CEE1CF1
:10180C00FF1CCC0CDD1CEE1CFF1CC20ED31EE41EF8
:10181C00F51E689413F8F594E794D794C79416942E
:10182C00D1F7A3019201C301B2010E94961B052EB0
:10183C005AE095958795779567955A95D1F7502DE0
:10184C00A70196010E94961BDC01CB01B595A795CB
:10185C0097958795880D991DAA1DBB1D9C01AD01FF
:10186C00012E1AE055954795379527951A95D1F77E
:10187C00102DA8EEB3E00E94131CDC01CB01072E47
:10188C007CE0B595A795979587957A95D1F7702DAE
:10189C008093516090935260A0935360B0935460C6
:1018AC00DF91CF91FF90EF90DF90CF90BF90AF90F2
:0E18BC009F908F907F906F905F904F90089557
:1018CA00A4E1B0E0EBE6FCE00C94E81A8F83988779
:1018DA0069837A834B8B5C8B122FDB011296ED9115
:1018EA00FC91139714962D913C9115972D833E8365
:1018FA00CD90DC90119716962D903C901797F7FD96
:10190A0003C0E894C1F802C0E1E0F0E0C6018071CA
:10191A00992789879A87C4FE18C0AB89BC892C91FC
:10192A0011963C91119712964D915D916D917C9112
:10193A00159716968C91169717969C910E943B1CA8
:10194A0021F08D819E81029702C08D819E81960130
:10195A00287033272B873C87C3FC0197AB89BC8946
:10196A004C9011965C90119712966D907D908D9087
:10197A009C9015971696AC9016971796BC90A981CD
:10198A00BA811896ED90FC901997B1E0EB1AF1081C
:10199A00D101AE0DBF1D1C928B839C839F01281B16
:1019AA00390B2D873E87C601827099278F87988BBE
:1019BA00812F012E000C990BDC01A154B109A98BCE
:1019CA00BA8B32E0E316F10430F489859A85892BC3
:1019DA0009F04BC06BC09201A301B401C5010E947A
:1019EA003B1C81F1B1E0EB1AF108C2018F70992713
:1019FA008A30910514F4C09602C0895A9F4FE9892A
:101A0A00FA897A9748F49C012062215631092A31D1
:101A1A00310510F40E94321CF101EE0DFF1D808386
:101A2A002B813C81215031092B833C839201A301F4
:101A3A00B401C50104E00E947C1A29013A014B0154
:101A4A005C01BFCF8D859E85AB81BC818A0F9B1FB0
:101A5A00181619063CF21A161B060CF0B6CFEF85BB
:101A6A00F889EF2B09F0BECFB0CFAB89BC892C9196
:101A7A0011963C91119712964D915D916D917C91C1
:101A8A00159716968C91169717969C910E943B1C57
:101A9A0069F0F101EE0DFF1D31971083B2E0EB1AE8
:101AAA00F108F101EE0DFF1D80E38083EB85FC85D3
:101ABA00EF2B41F0F1E0EF1AF108F101EE0DFF1DF5
:101ACA0080E28083A981BA8118964D915C91199719
:101ADA00415051094E195F09B1016E0D7F1D8601F2
:101AEA002D813E818F8198850E94C4179C01EF81C8
:101AFA00F8858081918190FF09C0A981BA811296E7
:101B0A008D919C911397821793070CF4C9016496DF
:061B1A00E2E10C94191B2E
:101B20000E94481B0E946C190E94081C0E946C1C99
:101B30000E94EE1B02E011E80F2EF5E16F2EF1E896
:101B40007F2EF02D0F2EF1E58F2EF0E69F2EF02D3B
:101B50000F2EF7E22F2EF1E83F2EF02DCBE9D0E645
:101B60000F2EF7E3AF2EF1E8BF2EF02D0F2EF1E48C
:101B70004F2EF1E85F2EF02D0F2EFAE4CF2EF1E874
:101B8000DF2EF02D0F2EF3E5EF2EF1E8FF2EF02DD6
:101B90000E94FB1B0E94CF1AE9E4F0E6808191814C
:101BA000A281B381BC01CD016E5C7F4F8F4F9F4FEF
:101BB00024E630E040E050E00E94311B5F934F93F9
:101BC0003F932F931F930F930E941A1AEDE4F0E6B0
:101BD00080819181A281B381BC01CD016E5C7F4F78
:101BE0008F4F9F4F24E630E040E050E00E94311BD1
:101BF0005F934F933F932F937F926F920E941A1A95
:101C0000F40180819181A281B381BC01CD016C502E
:101C10007E4F8F4F9F4F28EE33E040E050E00E9410
:101C2000311B5F934F933F932F933F922F920E94CC
:101C30001A1AEE81FF8183818F9382818F93BF92E5
:101C4000AF920E941A1AE881F98183818F93828171
:101C50008F935F924F920E941A1AEA81FB818381CF
:101C60008F9382818F93DF92CF920E941A1AEC8118
:101C7000FD8183818F9382818F93FF92EF920E94E7
:101C80001A1AFFEF2DE389E4F15020408040E1F77C
:101C900000C00000EDB7FEB7B296EDBFFEBF78CF33
:101CA000ACE0B0E0E6E5FEE00C94E81A89879A879C
:101CB0006B837C83FA01DB011296CD90DC90139745
:101CC00014968D919C9115978D839E83ED90FC9039
:101CD0001197E982FA8216960D90BC91A02DAF83E0
:101CE000B8872080318042805380648075808680F0
:101CF00097808101B42DA52DF62DE72D8B869C862E
:101D00009101A201B301C4010E943B1C4CF40E944A
:101D1000A61B8901B42FA52FF62FE72F8B879C8751
:101D2000D7FC04C0E894E1F8E982FA829101A201AB
:101D3000B301C401ED80FE800E943B1C1CF0898130
:101D400082FF04C081E0E81AF10805C083FF03C0E8
:101D500091E0E91AF108CE0101965C018AE0C82EF3
:101D6000D12C2B2F3A2F4F2F5E2F6B857C858B81AB
:101D70009C810E946910FC019101A201B301C40180
:101D80000E943B1C1CF0898182FF10C03197AF81FB
:101D9000B885AE0FBF1F9101A201B301C4010E941B
:101DA0003B1C14F08BE20AC08DE208C083FF07C021
:101DB0003197AF81B885AE0FBF1F80E28C93098148
:101DC0001A81AB81BC8118964D915C911997415055
:101DD00051094E1B5F0B6F8178856E0F7F1F2D8120
:101DE0003E8189859A850E94C4179C01E985FA8500
:101DF0008081918190FF09C0AB81BC8112968D9149
:101E00009C911397821793070CF4C9012C96E2E179
:041E10000C94191BFA
:101E14000F931F93CF93DF93FC01D90168387105A9
:101E240031F194F461387105B1F12CF46038710525
:101E340009F478C09FC06238710509F459C0643848
:101E4400710509F46FC096C0603A710509F448C081
:101E54002CF46039710509F44BC08CC0603C7105E9
:101E640009F476C0603F710509F472C083C0CD9156
:101E7400DC911197CE0102968D939C93452B39F0FA
:101E84009881892F880F880B908381835BC0888118
:101E94008083118268C0CD91DC911197CE010496A4
:101EA4008D939C93452B99F088819981AA81BB815C
:101EB400AC01BD01770F440B542FBA018083918389
:101EC400A283B383448345834683478328C0088120
:101ED40019812A813B81008311832283338345C086
:101EE400CD91DC911197CE0102968D939C9323C0E2
:101EF400CD91DC911197CE0108968D939C937881B6
:101F040069815A814B813C812D819E818F817083AF
:101F1400618352834383348325839683878381E05B
:101F240090E02AC0CD91DC911197CE0102968D9359
:101F34009C93452BA1F099812881892F880F880BC8
:101F44002083918382838383848385838683E6CFFE
:101F5400CD91DC911197CE0102968D939C930881CB
:101F640019810083118312821382148215821682CE
:101F74001782D5CF80E090E0DF91CF911F910F9130
:021F84000895BE
:101F86008F929F92AF92BF92CF92DF92EF92FF9283
:101F96000E94FD170E94EE18E2E0F0E6C584D684A2
:101FA600E784F088689412F8F594E794D794C79478
:101FB6001694D1F785899689A0E0B0E0880F991F1D
:101FC600AA1FBB1FC81AD90AEA0AFB0AC701B6012B
:101FD60095958795779567959B01AC010E94961B11
:101FE6009B01AC01012E1CE0559547953795279529
:101FF6001A95D1F7102D618D862F660F990BAA0BB6
:10200600BB0B880F991FAA1FBB1F880F991FAA1FFA
:10201600BB1FBC01CD01660F771F881F991F660F76
:10202600771F881F991F0E94961B4B015C01072E84
:102036007EE0B594A794979487947A95D1F7702DFE
:10204600A789B08DA70196010E94541CDC01CB0123
:10205600072E7BE0B595A795979587957A95D1F745
:10206600702D880D991DAA1DBB1D80934560909308
:102076004660A0934760B09348606C017D01CC0C2C
:10208600DD1CEE1CFF1CCC0CDD1CEE1CFF1C8C0D9D
:102096009D1DAE1DBF1D80589F4FAF4FBF4F892F4F
:1020A6009A2FAB2FBB27A7FDBA95809349609093D3
:1020B6004A60A0934B60B0934C60FF90EF90DF9026
:0C20C600CF90BF90AF909F908F90089536
:1020D200A2E1B0E0EFE6F0E10C94E81AFC010A8B11
:1020E2001B832C83732E642E552E462E7D83CC8625
:1020F200D886AE82BF82268137812A873B87D50167
:102102008D919C9122813381408551851A01B1E0E4
:102112002B1A310837FF02C021E030E0EA85FB8547
:10212200E20DF31D10824701E1E0F0E0E983FA835A
:10213200A9014E195F094D875E87DC01A270BB279A
:10214200AF87B88BB885BB0FBB0BB98B2114310499
:1021520009F450C02A893B814C81572D662D752D7B
:10216200842D9D810E943B1CB1F1E1E02E1A3108C1
:10217200FC85F987AF2EB884C988DC2CEC2CFC2CAA
:102182000C2D1C2D2A893B814C81572D662D752DD6
:10219200842D9D810E94D31BC90129839A83EA85DC
:1021A200FB85E20DF31D805D808321E0821A910898
:1021B2002A893B814C81572D662D752D842D9D8159
:1021C2000E94D51B2A8B3B834C83752E662E572E7D
:1021D200482E9D83BBCF8D859E85880D991D18162F
:1021E20019061CF2181419042CF44F855889452B32
:1021F20009F0BBCF89819A81892B41F4AE81BF81DD
:102202008D919C9111978F7E8D939C93C1016296C3
:06221200E2E10C94191B2F
:102218000F931F93CF93DF9380912D60811175C029
:1022280080910260882319F080E00E94C31820E0A2
:1022380043E060E070E08EE890E00E940212C2E0A5
:10224800D0E6BB2797FDBA95A92F982F872F8B8F9C
:102258009C8F20E044E060E070E080E090E90E941C
:102268000212072F182F292F332727FD3A950D8F94
:102278001E8F9F8F20E043E060E070E084E990E0EB
:102288000E940212BB27A92F982F872F88A399A3F2
:1022980020E043E060E070E086E990E00E940212EE
:1022A800BB27A92F982F872F8AA39BA320E043E061
:1022B80060E070E088E990E00E940212BB27A92F35
:1022C800982F872F8DA39CA320E043E060E070E067
:1022D8008CE990E00E940212BB27A92F982F872F24
:1022E8008EA39FA320E044E060E070E080E09EE9D8
:1022F8000E940212072F182F292F332727FD3A95FE
:1023080008A719A79AA781E08BA7DF91CF911F9102
:042318000F91089584
:10231C008F929F92AF92BF92CF92DF92EF92FF92E9
:10232C000F931F938B019C011127032F000F111F7B
:10233C0027FB00F9222733271127A8014F575109F2
:10234C00473151050CF045C057FD2DC00FEF1FEF65
:10235C002FE730E004C035952795179507954A95DA
:10236C00D2F74801590186229722A822B92289283E
:10237C008A288B2871F197FF07C0DC01CB01800FF5
:10238C00911FA21FB31F02C0DC01CB010095109559
:10239C002095309580239123A223B323482F392FE6
:1023AC002A2F5B2F1AC097FF0FC08B019C01000FC7
:1023BC00111F221F331F012B022B032B51F040E066
:1023CC0030E020E85FEB09C040E030E020E050E076
:1023DC0004C0462F372F282F592F642F732F822F8D
:1023EC00952F1F910F91FF90EF90DF90CF90BF90A2
:0823FC00AF909F908F900895AF
:102404004F925F926F927F92AF92BF92CF92DF9280
:10241400EF92FF920F931F93CF93DF9300D000D0DE
:10242400CDB7DEB769837A838B839C8382E0809304
:102434000604E42EF12C8701020F111D101611065B
:10244400ACF5A42EC12CD12CB12C412C512C320131
:1024540081E0E81AF108BA1458F4F701EC19FD09FF
:1024640081E090E08C0F9D1FE80FF91F808101C06F
:1024740080E00E94E11B90E0A0E0B0E0CC0CDD1C09
:10248400CC0CDD1CCC0CDD1C04C0880F991FAA1FCA
:10249400BB1FCA94D2F7482A592A6A2A7B2AB394C2
:1024A400CB2CD12CC016D106B4F203C0412C512C34
:1024B400320182E080930504C301B2012496CDBFAA
:1024C400DEBFDF91CF911F910F91FF90EF90DF90CE
:1024D400CF90BF90AF907F906F905F904F90089592
:1024E40010C00E947A1C58F00E94731C40F029F41A
:1024F4005F3F29F00C949D1C51110C94821C0C9488
:10250400BB1C0E94D61968F39923B1F3552391F3A8
:10251400951B550BBB27AA2762177307840738F04E
:102524009F5F5F4F220F331F441FAA1FA9F335D0AB
:102534000E2E3AF0E0E832D091505040E695001C5F
:10254400CAF72BD0FE2F29D0660F771F881FBB1F19
:10255400261737074807AB07B0E809F0BB0B802DF7
:10256400BF01FF2793585F4F3AF09E3F510578F023
:102574000C949D1C0C94821C5F3FE4F3983ED4F3AE
:10258400869577956795B795F7959F5FC9F7880FF7
:10259400911D9695879597F90895E1E0660F771F49
:1025A400881FBB1F621773078407BA0720F0621BDA
:0E25B400730B840BBA0BEE1F88F7E0950895A9
:1025C200CF92DF92EF92FF920F931F93CF93DF93FD
:1025D20080913760811157C080910260882319F081
:1025E20080E00E94C31820E044E060E070E080E0F8
:1025F20091EE0E940212C72ED82EE92EFF24C2E0CD
:10260200D0E6F701E295F295F07FFE27E07FFE2704
:102612009C012F7033272E2B3F2B2CA73DA7B701F0
:10262200A601032E3CE076956795579547953A9516
:10263200D1F7302D4F705527C60199278295929573
:10264200907F9827807F9827842B952B8EA79FA712
:1026520020E044E060E070E080E094EE0E9402122C
:10266200072F182F292F332708AB89AB2AAB20E07D
:1026720043E060E070E087EE90E00E9402127BABE4
:102682008CAB81E08DABDF91CF911F910F91FF90C9
:08269200EF90DF90CF90089556
:10269A00CF93DF93DC01F90164387105D9F164F451
:1026AA006138710521F16238710509F440C060385A
:1026BA00710509F054C02EC060397105C1F184F466
:1026CA006838710509F04BC0C081D181CE010296EC
:1026DA0080839183E881F981ED93FC9340833CC028
:1026EA00603A7105B9F0603C7105A1F038C0C0814B
:1026FA00D181CE01029680839183E881F981ED939D
:10270A00FC93052E000C660B770B40835183628382
:10271A00738322C0C081D181CE01029680839183C6
:10272A00E881F981ED93FC934083518315C0C08100
:10273A00D181CE01029680839183E881F981ED935C
:10274A00FC9340835183852F880F880B8283838370
:10275A00848385838683878381E090E002C080E05A
:08276A0090E0DF91CF9108958A
:10277200CF93DF93282F30E0F901EE0FFF1FE556CC
:10278200FF49A081B1819C91E0E0F6E0908711962B
:102792009C919093B00091E09287958590FFFDCF38
:1027A2006091100670911106DB01B295A295AF708F
:1027B200AB27BF70AB278330F1F0220F331FF90133
:1027C200E556FF490190F081E02DC091A160D091C2
:1027D200A2602A813B810E94B61BDC01CB01072E3D
:1027E2007CE0B695A795979587957A95D1F7702D48
:1027F2008283938321C0220F331FF901E556FF49DB
:10280200C081D181CD01A0E0B0E0BC01CD01052E97
:102812005AE0660F771F881F991F5A95D1F7502DDE
:102822000E9487172DEC3CEC4CEC53E40E94B31C45
:102832000E9466186A837B8382E080930A06DF9196
:04284200CF91089595
:102846000FC00E94731C38F00E947A1C20F095235A
:1028560011F00C949D1C0C94BB1C11240C94821C2E
:102866000E94D61970F3959FC1F3950F50E0551F3E
:10287600629FF001729FBB27F00DB11D639FAA27CF
:10288600F00DB11DAA1F649F6627B00DA11D661F1E
:10289600829F2227B00DA11D621F739FB00DA11D3F
:1028A600621F839FA00D611D221F749F3327A00DF9
:1028B600611D231F849F600D211D822F762F6A2F95
:1028C60011249F5750409AF0F1F088234AF0EE0FFA
:1028D600FF1FBB1F661F771F881F91505040A9F727
:1028E6009E3F510580F00C949D1C0C94821C5F3F0A
:1028F600E4F3983ED4F3869577956795B795F79563
:10290600E7959F5FC1F7FE2B880F911D96958795DA
:0429160097F9089590
:10291A00A2E0B0E0E3E9F4E10C94E81A1C014B01EF
:10292A00FA01DB0112962D913C91139714964D9062
:10293A005C9015978D919C91119789839A8316962D
:10294A006D907C90179737FD03C08D7F89839A839A
:10295A000081118122813381448155816681778189
:10296A00FE0131965F0188E0C82ED12C7201C401A4
:10297A000E946910298124FF06C00197F301E80F1C
:10298A00F91F20E32083298123FF06C00197F30161
:10299A00E80FF91F20E2208309811A81D4011896D1
:1029AA004D915C91199741505109481B590BB3013C
:1029BA00680F791F9201C1010E94C4179C01F1019D
:1029CA008081918190FF08C0D40112968D919C91CB
:1029DA001397821793070CF4C9012296E2E10C942B
:0229EA00191BB7
:1029EC0011C00E94731C38F00E947A1C20F039F43C
:1029FC009F3F19F426F40C94BB1C0EF4E095E7FBF6
:102A0C000C949D1CE92F0E94D61958F3BA17620733
:102A1C0073078407950720F079F4A6F50C94811CB4
:102A2C000EF4E0950B2EBA2FA02D0B01B9019001DD
:102A3C000C01CA01A0011124FF27591B99F0593F21
:102A4C0050F4503E68F11A16F040A22F232F342F69
:102A5C004427585FF3CF469537952795A795F040B7
:102A6C005395C9F77EF41F16BA0B620B730B840BCC
:102A7C00BAF09150A1F0FF0FBB1F661F771F881F84
:102A8C00C2F70EC0BA0F621F731F841F48F48795DC
:102A9C0077956795B795F7959E3F08F0B0CF9395CE
:0E2AAC00880F08F09927EE0F979587950895EB
:102ABA000F931F93CF93DF9390910560981309C0EA
:102ACA0090910660961305C090910760941709F4D7
:102ADA004CC0142FD62FC82F80910260811103C0D9
:102AEA0081E00E94C318612F70E0762F6627AB0140
:102AFA00446F6D2F70E0762F6627770F770F642B60
:102B0A00752B8C2F90E0982F88279295990F907E9D
:102B1A00682B792BCB01A0E0B0E0BC01CD01846722
:102B2A0021E043E00E940212892F9927AA27BB2796
:102B3A00E2E0F0E68C019D01689414F83695279539
:102B4A00179507951694D1F7077003838C019D0199
:102B5A0036952795179507953695279517950795CD
:102B6A0007700483682F63706583DF91CF911F918B
:042B7A000F9108951A
:102B7E00A2E0B0E0E5ECF5E10C94E81A3C014B0163
:102B8E00FA01DB0112962D913C91139714964D90FC
:102B9E005C9015978D919C91119789839A831696C7
:102BAE002D903C90179737FD03C08D7F89839A83B4
:102BBE000081118122813381448155816681778123
:102BCE00FE0131965F018AE0C82ED12C7201C4013C
:102BDE000E94691009811A81D40118964D915C9159
:102BEE00199741505109481B590BB101680F791FB4
:102BFE009201C3010E94C4179C01F301808191814F
:102C0E0090FF08C0D40112968D919C911397821754
:0E2C1E0093070CF4C9012296E2E10C94191BF5
:102C2C000F931F93CF93DF9390910360981305C07C
:102C3C0090910460961709F443C0D62FC82F809149
:102C4C000260811103C081E00E94C3188D2F90E0B7
:102C5C00A0E0B0E0BA2FA92F982F8827AC01BD01B6
:102C6C00456F65678C2F90E0A0E0B0E0072E7AE00E
:102C7C00880F991FAA1FBB1F7A95D1F7702D8A0157
:102C8C009B01082B192B2A2B3B2BC901B80121E0E6
:102C9C0043E00E940212892F9927AA27BB27E2E062
:102CAC00F0E68C019D01369527951795079536957D
:102CBC0027951795079507700183682F61706283BC
:0A2CCC00DF91CF911F910F91089541
:102CD60088249924F401E401B0E49F93AA279A1565
:102CE6008B049C04ED05FE05CF05D007A10798F4DB
:102CF600AD2FDC2FCF2FFE2FE92D982C892E982F64
:102D0600872F762F652F542F432F322F2227B85027
:102D160031F7BF9127C01B2EBF91BB27220F331F50
:102D2600441F551F661F771F881F991F881C991CF3
:102D3600EE1FFF1FCC1FDD1FAA1FBB1F8A149B049B
:102D4600EC05FD05CE05DF05A007B10748F08A189A
:102D56009B08EC09FD09CE09DF09A00BB10B216028
:102D66001A94E1F62EF49401AF01BE01CD01000CD8
:022D76000895BE
:102D78000F931F93CF93DF93DB01109719F48FEF15
:102D88009FEF3DC02D913C91119730FF25C01696BD
:102D98004D915C91179714962D913C911597421778
:102DA800530778F41296ED91FC911397808312964D
:102DB8002D913C9113972F5F3F4F12962D933C9383
:102DC800139716962D913C9117972F5F3F4F1696A4
:102DD8002D933C93179713C01C96ED91FC911D976A
:102DE800309769F2EB01092F182F0995892B39F6CD
:102DF8008E819F8101968E839F83812F902FDF91F3
:082E0800CF911F910F91089575
:102E1000A0E1B0E0EEE0F7E10C94F21AFB01BA0198
:102E2000AE014F5F5F4F6A0140E1D6011D924A95A6
:102E3000E9F742E051E049835A838B839C83F7FF93
:102E400009C08FE490E080930060909301608FEF61
:102E50009FEF1CC0309729F0AF01415051094D83BD
:102E60005E83A9018F017C01C6010E94011B01152F
:102E7000110561F04F8158852D813E81421753071E
:102E800008F49A01F701E20FF31F10826096E8E060
:042E90000C94231B60
:102E9400CF93DF9390910960981304C090910860D8
:102EA400961781F1C62FD82F80910260811103C03B
:102EB40081E00E94C3186C2F70E070E4679F702D4E
:102EC40066271124626F7D2BCB01A0E0B0E0BC012A
:102ED400CD01826721E043E00E940212892F9927E5
:102EE400AA27BB27E2E0F0E6282F277027836894FF
:102EF40015F8B695A795979587951694D1F7682FE9
:0A2F040061706683DF91CF9108959C
:102F0E00E89409C097FB3EF4909580957095619575
:102F1E007F4F8F4F9F4F9923A9F0F92F96E9BB272B
:102F2E009395F695879577956795B795F111F8CFA7
:102F3E00FAF4BB0F11F460FF1BC06F5F7F4F8F4F12
:102F4E009F4F16C0882311F096E911C0772321F008
:102F5E009EE8872F762F05C0662371F096E8862FA0
:102F6E0070E060E02AF09A95660F771F881FDAF7F7
:0A2F7E00880F9695879597F908953E
:102F8800A0E0B0E0EAECF7E10C94EE1A6C015B010A
:102F98007A01E901480181E08822992400FD03C0F3
:102FA8004217530750F0A701B501C6010E94981AAD
:102FB800EC16FD0610F0C70117C08E010E191F0987
:102FC8000115110541F0B60180E290E00E94BC169F
:102FD80001501109F5CF8114910429F4A701B50115
:102FE800C6010E94981ACE01CDB7DEB7ECE00C946A
:022FF8001F1B9D
:102FFA000F931F93CF93DF9380911C60811128C098
:10300A0080910260882319F080E00E94C31820E0B2
:10301A0043E060E070E089EE90E00E940212C2E0B4
:10302A00D0E6BB27A92F982F872F8D8B9E8B20E068
:10303A0044E060E070E080E09AE80E940212072F04
:10304A00182F292F33270F8B188F998F81E08A8F9A
:0A305A00DF91CF911F910F910895AF
:10306400A2E8B0E0E8E3F8E10C94EE1A5C014A014E
:1030740069837A83C12CD12CE981FA8180818823E8
:10308400E9F07401860120E830E0AE014D5F5F4F46
:10309400BE016F5F7F4FC5010E9457078C0D9D1DB8
:1030A4008C159D054CF48FE490E080930060909320
:1030B40001608FEF9FEF03C06C01DECFC601CE57D6
:0830C400DF4FECE00C941F1B30
:1030CC000E94DE1988F09F5798F0B92F9927B751B5
:1030DC00B0F0E1F0660F771F881F991F1AF0BA95B0
:1030EC00C9F714C0B13091F00E94811CB1E0089571
:1030FC000C94811C672F782F8827B85F39F0B93F63
:10310C00CCF3869577956795B395D9F73EF4909562
:0E311C008095709561957F4F8F4F9F4F08955E
:10312A00DC01ED91FC91119780818A3221F080E0D7
:10313A0090E03AE00EC03196ED93FC93DB01ED91FD
:10314A00FC911197CF0102968D939C938081918176
:10315A000895ED91FC911197208120532A3068F44B
:10316A00389FA001399F500D1124CA01820F911D69
:0C317A003196ED93FC931197ECCF089573
:103186002091026030E0482F50E02417350711F1F6
:10319600813029F080E090E0A3E7B0E004C080E051
:1031A60090E1A3E7B0E0BC01CD01636F21E043E00D
:1031B6000E940212892F9927AA27BB27689413F821
:1031C600B695A795979587951694D1F7682F617050
:0631D60060930260089501
:1031DC0080910260811103C081E00E94C31821E03C
:1031EC0043E060E070E082EA90E00E940212672FF8
:1031FC00782F892F99270E94881CBB27A92F982FDD
:10320C00872F689413F8B695A7959795879516947C
:10321C00D1F780930F6090931060A0931160B093DE
:04322C00126008958F
:1032300080910260811103C081E00E94C31821E0E7
:1032400043E060E070E08FE990E00E940212672F97
:10325000782F892F99270E94881CBB27A92F982F88
:10326000872F689413F8B695A79597958795169428
:10327000D1F78093136090931460A0931560B0937E
:043280001660089537
:10328400A0E0B0E0E8E4F9E10C94F01A7C01FB0161
:10329400EA01C901A280B380C480D5800081118174
:1032A400209711F4C3EAD0E6009719F4CE010E94E6
:1032B400C51BB7FC04C0A816B90608F4C5019601DD
:1032C400AC01BE01C7010E94C417CDB7DEB7EAE066
:0432D4000C94211B1A
:1032D800A0E0B4E08EE911968C93119790E21296D3
:1032E8009C931297E0E4F4E084E0818B828B838BDB
:1032F800E0E6F4E020E52183928390E1968398E06C
:10330800958B90E4958392E015969C93E0EEF5E01A
:0833180091E092838583089582
:10332000990F0008550FAA0BE0E8FEEF16161706D6
:10333000E807F907C0F012161306E407F50798F03E
:10334000621B730B840B950B39F40A2661F0232B57
:10335000242B252B21F408950A2609F4A140A695D3
:083360008FEF811D811D08950E
:10336800EF92FF920F931F93CF93DF938C017C0111
:10337800C0E0D0E006C0F70181917F010E94441CA3
:103388002196F80101900020E9F73197E01BF10B35
:10339800CE17DF0780F3DF91CF911F910F91FF9038
:0433A800EF90089505
:1033AC0057FD9058440F551F59F05F3F71F04795EA
:1033BC00880F97FB991F61F09F3F79F087950895CF
:1033CC00121613061406551FF2CF4695F1DF08C0EE
:1033DC00161617061806991FF1CF8695710561050B
:0433EC0008940895A4
:1033F000A1E21A2EAA1BBB1BFD010DC0AA1FBB1FF9
:10340000EE1FFF1FA217B307E407F50720F0A21B6A
:10341000B30BE40BF50B661F771F881F991F1A94D7
:1034200069F760957095809590959B01AC01BD0101
:04343000CF0108952B
:10343400CF93DF93CDB7DEB7C054D109CDBFDEBF84
:103444009E012B5B3F4FF901419151919F0160E433
:1034540070E0CE0101960E940817CE0101960E94E9
:10346400B419C05CDF4FCDBFDEBFDF91CF910895AB
:10347400CF93DF93EC0190E0E92FF0E0EE0FFF1F14
:10348400EB5AFF498081811102C081810EC0A8815D
:10349400B9812C91821305C091811196A883B983B7
:1034A40001C09F5F9B3040F3892FDF91CF91089536
:1034B400FA0160387105CCF0623871051CF063388C
:1034C400710599F4A081B1819D012C5F3F4F208348
:1034D40031834D915D916D917C91FC0140835183C9
:1034E4006283738381E090E0089580E090E0089522
:1034F40097FB10F8169400080F93083098F00850C2
:10350400232F342F452F562F672F782F892F902D57
:10351400F4CF059497958795779567955795479533
:0C352400379527950A95AAF70F91089596
:10353000A0E0B0E0EEE9FAE10C94F21A6C01EB01C4
:103540008A017B01E40EF51ECE15DF0541F089915D
:10355000B601082E000C990B0E94BC16F5CFC801CD
:0A356000CDB7DEB7E8E00C94231BA2
:10356A0080910260811103C081E00E94C31821E0AA
:10357A0042E060E075EA80E090E00E940212BB2718
:10358A00A92F982F872F782F692F60930D6070933A
:04359A000E60089522
:10359E0041E065E085E00E945D1560E085E00E94F7
:1035AE004A1760E087E00E9416160E942E0B0E94BA
:1035BE00C30F0E945B0940E065E085E00E945D1547
:0235CE0008955E
:1035D0002F923F924F925F926F927F928F929F9223
:1035E000AF92BF92CF92DF92EF92FF920F931F9311
:1035F000CF93DF93CDB7DEB7CA1BDB0BCDBFDEBFEA
:0236000009942B
:10360200A2E0B0E0E7E0FBE10C94F61A8C014983FA
:103612005A83AE014F5F5F4F0E943218F80120813A
:1036220024FF02C08FEF9FEF2296E4E00C94271B49
:103632002A88398848885F846E847D848C849B8440
:10364200AA84B984C884DF80EE80FD800C811B814E
:10365200AA81B981CE0FD11DCDBFDEBFED01089584
:10366200052E97FB1EF400940E944C1C57FD07D0B8
:103672000E94F81907FC03D04EF40C944C1C509590
:0E3682004095309521953F4F4F4F5F4F089573
:1036900060E080E690E00E94A31C64E288E690E08F
:1036A0000E94A31C60E081E690E00E94A31CE0E67B
:0A36B000F0E0858180FDFDCF089554
:1036BA0097FB072E16F4009407D077FD09D00E94D5
:1036CA00711B07FC05D03EF4909581959F4F089594
:0836DA00709561957F4F089582
:1036E200AA1BBB1B51E107C0AA1FBB1FA617B70726
:1036F20010F0A61BB70B881F991F5A95A9F7809542
:083702009095BC01CD01089572
:10370A00092E0394000C11F4882352F0BB0F40F4E5
:10371A00BF2B11F460FF04C06F5F7F4F8F4F9F4F25
:02372A00089500
:10372C00DB018F939F930E94131CBF91AF91A29FBB
:10373C00800D911DA39F900DB29F900D11240895A3
:10374C006095709580959095309540955095219504
:10375C003F4F4F4F5F4F6F4F7F4F8F4F9F4F08958E
:10376C00A29FB001B39FC001A39F700D811D1124B6
:0E377C00911DB29F700D811D1124911D0895A5
:10378A00FC01AF014F5F5F4F2081222311F0FA0144
:0C379A00F8CF9F01281B390BC9010895CE
:1037A600689401C0E8948F929F92CF93DF930E9412
:0C37B6006B16DF91CF919F908F900895CB
:1037C20080934409E0E4F9E083818823ECF7E0E4A4
:0A37D200F9E080E883838481089504
:1037DC00E0E0F6E084E081838DE082838FEA8383EE
:0A37EC008FEF858381E0808308954C
:1037F60083E00E94B91382E00E94B91381E00E941F
:0A380600B91380E00E94B913089581
:10381000E0E0F8E081E493E08087918782EC8683A2
:0638200083E08783089598
:103826000E94B61BA59F900DB49F900DA49F800D7E
:06383600911D112408950C
:10383C00EC010E94C31C0E94C21CCE010E94C41C3D
:06384C00CE010E94C01C29
:10385200FC01480F591FE417F50711F06193FBCFE4
:023862000895C7
:103864009C01215631092A31310510F48F759927AD
:023874000895B5
:103876002115310541055105610571058105910542
:023886000895A3
:10388800E0E0F8E0948195FFFDCF80930208089569
:1038980090958095709561957F4F8F4F9F4F0895B4
:1038A800B7FF0C94131C0E94131C821B930B0895E2
:1038B800FC01DB012D91BD0121932111FACF08955F
:1038C8009C01215431092A31310508F48062089598
:0E38D800E0E4F9E081E2808384E081830895DA
:0E38E60000240A9416161706180609060895FF
:0E38F40000240A941216130614060506089501
:0E390200E894BB2766277727CB0197F9089535
:0E391000692796276927782787277827089543
:0E391E005058BB27AA270E94F6140C94851B54
:0E392C000E9466186894B1110C94821C0895D4
:0C393A0097F99F6780E870E060E0089556
:0C394600DC0128ED209334006C93089500
:0A3952000E94901908F481E0089526
:0A395C000E94901908F48FEF0895FF
:083966000E9472120C94851BF3
:08396E000E9423140C94851B38
:063976009FEF80EC0895B4
:04397C000C940000A7
:043980000E947F0022
:023984000895A4
:023986000895A2
:023988000895A0
:10398A0068076C094C836A9074A07AC000806888C2
:06399A0000846C82008134
:1039A0001D0500001E0500001F0500004400050D58
:1039B000494E4600696E66004E414E006E616E00D3
:1039C000494E4600696E66004E414E006E616E00C3
:0839D0006B606F6073607760AB
:0739D800286E756C6C2900DC
:0639DF00286E696C29004E
:02000004008278
:090000000000000000D110000016
:02000004008377
:040000005CC5C55CBA
:00000001FF
